{
    "contractName": "SupplyCoin",
    "abi": [
        {
            "inputs": [],
            "stateMutability": "nonpayable",
            "type": "constructor"
        },
        {
            "anonymous": false,
            "inputs": [
                {
                    "indexed": true,
                    "internalType": "address",
                    "name": "_owner",
                    "type": "address"
                },
                {
                    "indexed": true,
                    "internalType": "address",
                    "name": "_spender",
                    "type": "address"
                },
                {
                    "indexed": false,
                    "internalType": "uint256",
                    "name": "_value",
                    "type": "uint256"
                }
            ],
            "name": "Approval",
            "type": "event"
        },
        {
            "anonymous": false,
            "inputs": [
                {
                    "indexed": true,
                    "internalType": "address",
                    "name": "_from",
                    "type": "address"
                },
                {
                    "indexed": true,
                    "internalType": "address",
                    "name": "_to",
                    "type": "address"
                },
                {
                    "indexed": false,
                    "internalType": "uint256",
                    "name": "_value",
                    "type": "uint256"
                }
            ],
            "name": "Transfer",
            "type": "event"
        },
        {
            "inputs": [
                {
                    "internalType": "address",
                    "name": "addr",
                    "type": "address"
                }
            ],
            "name": "setSupplyContract",
            "outputs": [],
            "stateMutability": "nonpayable",
            "type": "function"
        },
        {
            "inputs": [
                {
                    "internalType": "address",
                    "name": "to",
                    "type": "address"
                },
                {
                    "internalType": "uint256",
                    "name": "amount",
                    "type": "uint256"
                }
            ],
            "name": "mineForCEthHolder",
            "outputs": [],
            "stateMutability": "nonpayable",
            "type": "function"
        },
        {
            "inputs": [
                {
                    "internalType": "address",
                    "name": "to",
                    "type": "address"
                },
                {
                    "internalType": "uint256",
                    "name": "amount",
                    "type": "uint256"
                }
            ],
            "name": "burnForCEthHolder",
            "outputs": [],
            "stateMutability": "nonpayable",
            "type": "function"
        },
        {
            "inputs": [],
            "name": "name",
            "outputs": [
                {
                    "internalType": "string",
                    "name": "",
                    "type": "string"
                }
            ],
            "stateMutability": "view",
            "type": "function",
            "constant": true
        },
        {
            "inputs": [],
            "name": "symbol",
            "outputs": [
                {
                    "internalType": "string",
                    "name": "",
                    "type": "string"
                }
            ],
            "stateMutability": "view",
            "type": "function",
            "constant": true
        },
        {
            "inputs": [],
            "name": "decimals",
            "outputs": [
                {
                    "internalType": "uint8",
                    "name": "",
                    "type": "uint8"
                }
            ],
            "stateMutability": "view",
            "type": "function",
            "constant": true
        },
        {
            "inputs": [],
            "name": "totalSupply",
            "outputs": [
                {
                    "internalType": "uint256",
                    "name": "",
                    "type": "uint256"
                }
            ],
            "stateMutability": "view",
            "type": "function",
            "constant": true
        },
        {
            "inputs": [
                {
                    "internalType": "address",
                    "name": "_owner",
                    "type": "address"
                }
            ],
            "name": "balanceOf",
            "outputs": [
                {
                    "internalType": "uint256",
                    "name": "balance",
                    "type": "uint256"
                }
            ],
            "stateMutability": "view",
            "type": "function",
            "constant": true
        },
        {
            "inputs": [
                {
                    "internalType": "address",
                    "name": "_to",
                    "type": "address"
                },
                {
                    "internalType": "uint256",
                    "name": "_value",
                    "type": "uint256"
                }
            ],
            "name": "transfer",
            "outputs": [
                {
                    "internalType": "bool",
                    "name": "success",
                    "type": "bool"
                }
            ],
            "stateMutability": "nonpayable",
            "type": "function"
        },
        {
            "inputs": [
                {
                    "internalType": "address",
                    "name": "_from",
                    "type": "address"
                },
                {
                    "internalType": "address",
                    "name": "_to",
                    "type": "address"
                },
                {
                    "internalType": "uint256",
                    "name": "_value",
                    "type": "uint256"
                }
            ],
            "name": "transferFrom",
            "outputs": [
                {
                    "internalType": "bool",
                    "name": "success",
                    "type": "bool"
                }
            ],
            "stateMutability": "nonpayable",
            "type": "function"
        },
        {
            "inputs": [
                {
                    "internalType": "address",
                    "name": "_spender",
                    "type": "address"
                },
                {
                    "internalType": "uint256",
                    "name": "_value",
                    "type": "uint256"
                }
            ],
            "name": "approve",
            "outputs": [
                {
                    "internalType": "bool",
                    "name": "success",
                    "type": "bool"
                }
            ],
            "stateMutability": "nonpayable",
            "type": "function"
        },
        {
            "inputs": [
                {
                    "internalType": "address",
                    "name": "_owner",
                    "type": "address"
                },
                {
                    "internalType": "address",
                    "name": "_spender",
                    "type": "address"
                }
            ],
            "name": "allowance",
            "outputs": [
                {
                    "internalType": "uint256",
                    "name": "remaining",
                    "type": "uint256"
                }
            ],
            "stateMutability": "view",
            "type": "function",
            "constant": true
        }
    ],
    "bytecode": "0x60806040526040518060400160405280600a81526020017f537570706c79436f696e000000000000000000000000000000000000000000008152506000908051906020019062000051929190620000fa565b506040518060400160405280600381526020017f53504c0000000000000000000000000000000000000000000000000000000000815250600190805190602001906200009f929190620000fa565b506000600255348015620000b257600080fd5b5033600360006101000a81548173ffffffffffffffffffffffffffffffffffffffff021916908373ffffffffffffffffffffffffffffffffffffffff1602179055506200020f565b8280546200010890620001d9565b90600052602060002090601f0160209004810192826200012c576000855562000178565b82601f106200014757805160ff191683800117855562000178565b8280016001018555821562000178579182015b82811115620001775782518255916020019190600101906200015a565b5b5090506200018791906200018b565b5090565b5b80821115620001a65760008160009055506001016200018c565b5090565b7f4e487b7100000000000000000000000000000000000000000000000000000000600052602260045260246000fd5b60006002820490506001821680620001f257607f821691505b60208210811415620002095762000208620001aa565b5b50919050565b61102e806200021f6000396000f3fe608060405234801561001057600080fd5b50600436106100b45760003560e01c806395d89b411161007157806395d89b41146101a3578063a9059cbb146101c1578063dd62ed3e146101f1578063e35e318714610221578063f2c453841461023d578063fccbeb2d14610259576100b4565b806306fdde03146100b9578063095ea7b3146100d757806318160ddd1461010757806323b872dd14610125578063313ce5671461015557806370a0823114610173575b600080fd5b6100c1610275565b6040516100ce9190610c5d565b60405180910390f35b6100f160048036038101906100ec9190610d18565b610307565b6040516100fe9190610d73565b60405180910390f35b61010f6103f5565b60405161011c9190610d9d565b60405180910390f35b61013f600480360381019061013a9190610db8565b610404565b60405161014c9190610d73565b60405180910390f35b61015d610693565b60405161016a9190610e27565b60405180910390f35b61018d60048036038101906101889190610e42565b61069c565b60405161019a9190610d9d565b60405180910390f35b6101ab6106e5565b6040516101b89190610c5d565b60405180910390f35b6101db60048036038101906101d69190610d18565b610777565b6040516101e89190610d73565b60405180910390f35b61020b60048036038101906102069190610e6f565b610953565b6040516102189190610d9d565b60405180910390f35b61023b60048036038101906102369190610e42565b6109da565b005b61025760048036038101906102529190610d18565b610a78565b005b610273600480360381019061026e9190610d18565b610b1e565b005b60606000805461028490610ede565b80601f01602080910402602001604051908101604052809291908181526020018280546102b090610ede565b80156102fd5780601f106102d2576101008083540402835291602001916102fd565b820191906000526020600020905b8154815290600101906020018083116102e057829003601f168201915b5050505050905090565b600081600660003373ffffffffffffffffffffffffffffffffffffffff1673ffffffffffffffffffffffffffffffffffffffff16815260200190815260200160002060008573ffffffffffffffffffffffffffffffffffffffff1673ffffffffffffffffffffffffffffffffffffffff168152602001908152602001600020819055508273ffffffffffffffffffffffffffffffffffffffff163373ffffffffffffffffffffffffffffffffffffffff167f8c5be1e5ebec7d5bd14f71427d1e84f3dd0314c0f7b2291e5b200ac8c7c3b925846040516103e79190610d9d565b60405180910390a392915050565b600066038d7ea4c68000905090565b600081600560008673ffffffffffffffffffffffffffffffffffffffff1673ffffffffffffffffffffffffffffffffffffffff168152602001908152602001600020541015610456576000905061068c565b81600660008673ffffffffffffffffffffffffffffffffffffffff1673ffffffffffffffffffffffffffffffffffffffff16815260200190815260200160002060003373ffffffffffffffffffffffffffffffffffffffff1673ffffffffffffffffffffffffffffffffffffffff1681526020019081526020016000205410156104e3576000905061068c565b81600560008673ffffffffffffffffffffffffffffffffffffffff1673ffffffffffffffffffffffffffffffffffffffff16815260200190815260200160002060008282546105329190610f3f565b9250508190555081600560008573ffffffffffffffffffffffffffffffffffffffff1673ffffffffffffffffffffffffffffffffffffffff16815260200190815260200160002060008282546105889190610f73565b9250508190555081600660008673ffffffffffffffffffffffffffffffffffffffff1673ffffffffffffffffffffffffffffffffffffffff16815260200190815260200160002060003373ffffffffffffffffffffffffffffffffffffffff1673ffffffffffffffffffffffffffffffffffffffff168152602001908152602001600020600082825461061b9190610f3f565b925050819055508273ffffffffffffffffffffffffffffffffffffffff168473ffffffffffffffffffffffffffffffffffffffff167fddf252ad1be2c89b69c2b068fc378daa952ba7f163c4a11628f55a4df523b3ef8460405161067f9190610d9d565b60405180910390a3600190505b9392505050565b60006008905090565b6000600560008373ffffffffffffffffffffffffffffffffffffffff1673ffffffffffffffffffffffffffffffffffffffff168152602001908152602001600020549050919050565b6060600180546106f490610ede565b80601f016020809104026020016040519081016040528092919081815260200182805461072090610ede565b801561076d5780601f106107425761010080835404028352916020019161076d565b820191906000526020600020905b81548152906001019060200180831161075057829003601f168201915b5050505050905090565b600081600560003373ffffffffffffffffffffffffffffffffffffffff1673ffffffffffffffffffffffffffffffffffffffff16815260200190815260200160002054116107c8576107c7610fc9565b5b81600560003373ffffffffffffffffffffffffffffffffffffffff1673ffffffffffffffffffffffffffffffffffffffff168152602001908152602001600020546108139190610f3f565b600560003373ffffffffffffffffffffffffffffffffffffffff1673ffffffffffffffffffffffffffffffffffffffff1681526020019081526020016000208190555081600560008573ffffffffffffffffffffffffffffffffffffffff1673ffffffffffffffffffffffffffffffffffffffff168152602001908152602001600020546108a19190610f73565b600560008573ffffffffffffffffffffffffffffffffffffffff1673ffffffffffffffffffffffffffffffffffffffff168152602001908152602001600020819055508273ffffffffffffffffffffffffffffffffffffffff163373ffffffffffffffffffffffffffffffffffffffff167fddf252ad1be2c89b69c2b068fc378daa952ba7f163c4a11628f55a4df523b3ef846040516109419190610d9d565b60405180910390a36001905092915050565b6000600660008473ffffffffffffffffffffffffffffffffffffffff1673ffffffffffffffffffffffffffffffffffffffff16815260200190815260200160002060008373ffffffffffffffffffffffffffffffffffffffff1673ffffffffffffffffffffffffffffffffffffffff16815260200190815260200160002054905092915050565b600360009054906101000a900473ffffffffffffffffffffffffffffffffffffffff1673ffffffffffffffffffffffffffffffffffffffff163373ffffffffffffffffffffffffffffffffffffffff1614610a3457600080fd5b80600460006101000a81548173ffffffffffffffffffffffffffffffffffffffff021916908373ffffffffffffffffffffffffffffffffffffffff16021790555050565b80600560008473ffffffffffffffffffffffffffffffffffffffff1673ffffffffffffffffffffffffffffffffffffffff16815260200190815260200160002054610ac39190610f73565b600560008473ffffffffffffffffffffffffffffffffffffffff1673ffffffffffffffffffffffffffffffffffffffff1681526020019081526020016000208190555080600254610b149190610f73565b6002819055505050565b80600560008473ffffffffffffffffffffffffffffffffffffffff1673ffffffffffffffffffffffffffffffffffffffff16815260200190815260200160002054610b699190610f3f565b600560008473ffffffffffffffffffffffffffffffffffffffff1673ffffffffffffffffffffffffffffffffffffffff1681526020019081526020016000208190555080600254610bba9190610f3f565b6002819055505050565b600081519050919050565b600082825260208201905092915050565b60005b83811015610bfe578082015181840152602081019050610be3565b83811115610c0d576000848401525b50505050565b6000601f19601f8301169050919050565b6000610c2f82610bc4565b610c398185610bcf565b9350610c49818560208601610be0565b610c5281610c13565b840191505092915050565b60006020820190508181036000830152610c778184610c24565b905092915050565b600080fd5b600073ffffffffffffffffffffffffffffffffffffffff82169050919050565b6000610caf82610c84565b9050919050565b610cbf81610ca4565b8114610cca57600080fd5b50565b600081359050610cdc81610cb6565b92915050565b6000819050919050565b610cf581610ce2565b8114610d0057600080fd5b50565b600081359050610d1281610cec565b92915050565b60008060408385031215610d2f57610d2e610c7f565b5b6000610d3d85828601610ccd565b9250506020610d4e85828601610d03565b9150509250929050565b60008115159050919050565b610d6d81610d58565b82525050565b6000602082019050610d886000830184610d64565b92915050565b610d9781610ce2565b82525050565b6000602082019050610db26000830184610d8e565b92915050565b600080600060608486031215610dd157610dd0610c7f565b5b6000610ddf86828701610ccd565b9350506020610df086828701610ccd565b9250506040610e0186828701610d03565b9150509250925092565b600060ff82169050919050565b610e2181610e0b565b82525050565b6000602082019050610e3c6000830184610e18565b92915050565b600060208284031215610e5857610e57610c7f565b5b6000610e6684828501610ccd565b91505092915050565b60008060408385031215610e8657610e85610c7f565b5b6000610e9485828601610ccd565b9250506020610ea585828601610ccd565b9150509250929050565b7f4e487b7100000000000000000000000000000000000000000000000000000000600052602260045260246000fd5b60006002820490506001821680610ef657607f821691505b60208210811415610f0a57610f09610eaf565b5b50919050565b7f4e487b7100000000000000000000000000000000000000000000000000000000600052601160045260246000fd5b6000610f4a82610ce2565b9150610f5583610ce2565b925082821015610f6857610f67610f10565b5b828203905092915050565b6000610f7e82610ce2565b9150610f8983610ce2565b9250827fffffffffffffffffffffffffffffffffffffffffffffffffffffffffffffffff03821115610fbe57610fbd610f10565b5b828201905092915050565b7f4e487b7100000000000000000000000000000000000000000000000000000000600052600160045260246000fdfea26469706673582212203b6ae8f699eacf57bc80f35c3021d73bc358c44cc31ceb4d432986ebe842a56464736f6c634300080b0033",
    "immutableReferences": {},
    "source": "// SPDX-License-Identifier: GPL-3.0\r\npragma solidity >=0.7.0 <0.9.0;\r\n\r\n\r\ncontract SupplyCoin {\r\n    string NAME = \"SupplyCoin\";\r\n    string SYMBOL = \"SPL\";\r\n    uint totalMinted = 0;\r\n    address deployer;\r\n    // supply contract address has previliges to mint and burn\r\n    address supplyContract;\r\n    event Transfer(address indexed _from, address indexed _to, uint256 _value);\r\n    event Approval(address indexed _owner, address indexed _spender, uint256 _value);\r\n    \r\n    mapping(address => uint) balances;\r\n    mapping(address => mapping(address => uint)) allowances;\r\n\r\n\r\n    modifier onlySupplyContract(){\r\n        require(msg.sender == supplyContract, \"Only Supply Contract Allowed\");\r\n        _;\r\n    }\r\n    modifier onlyAdmin(){\r\n        require(msg.sender == deployer);\r\n        _;\r\n    }\r\n    \r\n    constructor(){\r\n        deployer = msg.sender;\r\n    }\r\n    function setSupplyContract(address addr) external onlyAdmin{\r\n        supplyContract = addr;\r\n    }\r\n    function mineForCEthHolder(address to, uint amount) external {\r\n        balances[to] = balances[to] + amount;\r\n        totalMinted = totalMinted + amount;\r\n    }\r\n    function burnForCEthHolder(address to, uint amount) external {\r\n        balances[to] = balances[to] - amount;\r\n        totalMinted = totalMinted - amount;\r\n    }\r\n    \r\n    function name() public view returns (string memory){\r\n        return NAME;\r\n    }\r\n    \r\n    function symbol() public view returns (string memory) {\r\n        return SYMBOL;\r\n    }\r\n    \r\n    function decimals() public view returns (uint8) {\r\n        return 8;\r\n    }\r\n    \r\n    function totalSupply() public view returns (uint256) {\r\n        return 10000000 * 1e8; //10M * 10^8 because decimals is 8\r\n    }\r\n    \r\n    function balanceOf(address _owner) public view returns (uint256 balance) {\r\n        return balances[_owner];    \r\n    }\r\n    \r\n    function transfer(address _to, uint256 _value) public returns (bool success) {\r\n        assert(balances[msg.sender] > _value);\r\n        balances[msg.sender] = balances[msg.sender] - _value;\r\n        balances[_to] = balances[_to] + _value;\r\n        \r\n        emit Transfer(msg.sender, _to, _value);\r\n        \r\n        return true;\r\n    }\r\n    \r\n    function transferFrom(address _from, address _to, uint256 _value) public returns (bool success) {\r\n        if(balances[_from] < _value)\r\n            return false;\r\n        \r\n        if(allowances[_from][msg.sender] < _value)\r\n            return false;\r\n            \r\n        balances[_from] -= _value;\r\n        balances[_to] += _value;\r\n        allowances[_from][msg.sender] -= _value;\r\n        \r\n        emit Transfer(_from, _to, _value);\r\n        \r\n        return true;\r\n    }\r\n    \r\n    \r\n    \r\n    function approve(address _spender, uint256 _value) public returns (bool success) {\r\n        allowances[msg.sender][_spender] = _value;\r\n        emit Approval(msg.sender, _spender, _value);\r\n    }\r\n    \r\n    function allowance(address _owner, address _spender) public view returns (uint256 remaining) {\r\n        return allowances[_owner][_spender];\r\n    }\r\n        \r\n\r\n    \r\n}\r\n",
    "sourcePath": "C:\\Users\\DELL\\Desktop\\federator\\code\\contracts\\SupplyCoin.sol",
    "compiler": {
        "name": "solc",
        "version": "0.8.11+commit.d7f03943.Emscripten.clang"
    },
    "schemaVersion": "3.4.4",
    "updatedAt": "2022-02-10T03:26:17.281Z",
    "networkType": "ethereum",
    "devdoc": {
        "kind": "dev",
        "methods": {},
        "version": 1
    },
    "userdoc": {
        "kind": "user",
        "methods": {},
        "version": 1
    }
}