{
  "contractName": "SupplyBank",
  "abi": [
    {
      "stateMutability": "payable",
      "type": "receive",
      "payable": true
    },
    {
      "inputs": [],
      "name": "getContractBalance",
      "outputs": [
        {
          "internalType": "uint256",
          "name": "",
          "type": "uint256"
        }
      ],
      "stateMutability": "view",
      "type": "function",
      "constant": true
    },
    {
      "inputs": [],
      "name": "addBalance",
      "outputs": [],
      "stateMutability": "payable",
      "type": "function",
      "payable": true
    },
    {
      "inputs": [
        {
          "internalType": "address",
          "name": "userAddress",
          "type": "address"
        }
      ],
      "name": "getBalance",
      "outputs": [
        {
          "internalType": "uint256",
          "name": "",
          "type": "uint256"
        }
      ],
      "stateMutability": "view",
      "type": "function",
      "constant": true
    },
    {
      "inputs": [
        {
          "internalType": "address",
          "name": "userAddress",
          "type": "address"
        }
      ],
      "name": "getCethBalance",
      "outputs": [
        {
          "internalType": "uint256",
          "name": "",
          "type": "uint256"
        }
      ],
      "stateMutability": "view",
      "type": "function",
      "constant": true
    },
    {
      "inputs": [
        {
          "internalType": "address",
          "name": "userAddress",
          "type": "address"
        }
      ],
      "name": "getEthBalance",
      "outputs": [
        {
          "internalType": "uint256",
          "name": "",
          "type": "uint256"
        }
      ],
      "stateMutability": "view",
      "type": "function",
      "constant": true
    },
    {
      "inputs": [],
      "name": "mineForCLT",
      "outputs": [],
      "stateMutability": "nonpayable",
      "type": "function"
    },
    {
      "inputs": [],
      "name": "withdrawMax",
      "outputs": [],
      "stateMutability": "payable",
      "type": "function",
      "payable": true
    },
    {
      "inputs": [
        {
          "internalType": "uint256",
          "name": "amountRequested",
          "type": "uint256"
        }
      ],
      "name": "withdrawAmount",
      "outputs": [],
      "stateMutability": "payable",
      "type": "function",
      "payable": true
    },
    {
      "inputs": [
        {
          "internalType": "address",
          "name": "to",
          "type": "address"
        },
        {
          "internalType": "uint256",
          "name": "amount",
          "type": "uint256"
        }
      ],
      "name": "paySupplyWithSPLT",
      "outputs": [],
      "stateMutability": "nonpayable",
      "type": "function"
    }
  ],
  "bytecode": "0x60806040526000805573859e9d8a4edadfedb5a2ff311243af80f85a91b8600160006101000a81548173ffffffffffffffffffffffffffffffffffffffff021916908373ffffffffffffffffffffffffffffffffffffffff16021790555073d1dc374975eabd303256b081e00b39caec1897d0600260006101000a81548173ffffffffffffffffffffffffffffffffffffffff021916908373ffffffffffffffffffffffffffffffffffffffff160217905550600160009054906101000a900473ffffffffffffffffffffffffffffffffffffffff16600360006101000a81548173ffffffffffffffffffffffffffffffffffffffff021916908373ffffffffffffffffffffffffffffffffffffffff160217905550600260009054906101000a900473ffffffffffffffffffffffffffffffffffffffff16600460006101000a81548173ffffffffffffffffffffffffffffffffffffffff021916908373ffffffffffffffffffffffffffffffffffffffff16021790555034801561018457600080fd5b50611172806101946000396000f3fe60806040526004361061008a5760003560e01c806376e075501161005957806376e0755014610157578063b163cc3814610180578063d9445f3b1461018a578063e5cd8b6a146101a1578063f8b2cb4f146101ab57610091565b80630562b9f7146100965780634d2301cc146100b257806353fce431146100ef5780636f9fb98a1461012c57610091565b3661009157005b600080fd5b6100b060048036038101906100ab9190610c65565b6101e8565b005b3480156100be57600080fd5b506100d960048036038101906100d49190610cf0565b6102ff565b6040516100e69190610d2c565b60405180910390f35b3480156100fb57600080fd5b5061011660048036038101906101119190610cf0565b610348565b6040516101239190610d2c565b60405180910390f35b34801561013857600080fd5b50610141610391565b60405161014e9190610d2c565b60405180910390f35b34801561016357600080fd5b5061017e60048036038101906101799190610d47565b61039a565b005b610188610441565b005b34801561019657600080fd5b5061019f61044c565b005b6101a96104e1565b005b3480156101b757600080fd5b506101d260048036038101906101cd9190610cf0565b6106b8565b6040516101df9190610d2c565b60405180910390f35b6101f1336106b8565b811115610233576040517f08c379a000000000000000000000000000000000000000000000000000000000815260040161022a90610e0a565b60405180910390fd5b60003390506000610243836107af565b9050806000808282546102569190610e59565b9250508190555080600560003373ffffffffffffffffffffffffffffffffffffffff1673ffffffffffffffffffffffffffffffffffffffff16815260200190815260200160002060008282546102ac9190610e59565b925050819055508173ffffffffffffffffffffffffffffffffffffffff166108fc849081150290604051600060405180830381858888f193505050501580156102f9573d6000803e3d6000fd5b50505050565b6000600660008373ffffffffffffffffffffffffffffffffffffffff1673ffffffffffffffffffffffffffffffffffffffff168152602001908152602001600020549050919050565b6000600560008373ffffffffffffffffffffffffffffffffffffffff1673ffffffffffffffffffffffffffffffffffffffff168152602001908152602001600020549050919050565b60008054905090565b600460009054906101000a900473ffffffffffffffffffffffffffffffffffffffff1673ffffffffffffffffffffffffffffffffffffffff166323b872dd3384846040518463ffffffff1660e01b81526004016103f993929190610e9c565b6020604051808303816000875af1158015610418573d6000803e3d6000fd5b505050506040513d601f19601f8201168201806040525081019061043c9190610f0b565b505050565b61044a346109aa565b565b600460009054906101000a900473ffffffffffffffffffffffffffffffffffffffff1673ffffffffffffffffffffffffffffffffffffffff1663f2c4538433633b9aca006040518363ffffffff1660e01b81526004016104ad929190610f7d565b600060405180830381600087803b1580156104c757600080fd5b505af11580156104db573d6000803e3d6000fd5b50505050565b6000339050600360009054906101000a900473ffffffffffffffffffffffffffffffffffffffff1673ffffffffffffffffffffffffffffffffffffffff1663db006a75600560003373ffffffffffffffffffffffffffffffffffffffff1673ffffffffffffffffffffffffffffffffffffffff168152602001908152602001600020546040518263ffffffff1660e01b81526004016105809190610d2c565b6020604051808303816000875af115801561059f573d6000803e3d6000fd5b505050506040513d601f19601f820116820180604052508101906105c39190610fbb565b5060006105cf336106b8565b9050600560003373ffffffffffffffffffffffffffffffffffffffff1673ffffffffffffffffffffffffffffffffffffffff168152602001908152602001600020546000808282546106219190610e59565b925050819055506000600560003373ffffffffffffffffffffffffffffffffffffffff1673ffffffffffffffffffffffffffffffffffffffff168152602001908152602001600020819055508173ffffffffffffffffffffffffffffffffffffffff166108fc829081150290604051600060405180830381858888f193505050501580156106b3573d6000803e3d6000fd5b505050565b6000670de0b6b3a7640000600360009054906101000a900473ffffffffffffffffffffffffffffffffffffffff1673ffffffffffffffffffffffffffffffffffffffff1663182df0f56040518163ffffffff1660e01b8152600401602060405180830381865afa158015610730573d6000803e3d6000fd5b505050506040513d601f19601f820116820180604052508101906107549190610fbb565b600560008573ffffffffffffffffffffffffffffffffffffffff1673ffffffffffffffffffffffffffffffffffffffff1681526020019081526020016000205461079e9190610fe8565b6107a89190611071565b9050919050565b600080600360009054906101000a900473ffffffffffffffffffffffffffffffffffffffff1673ffffffffffffffffffffffffffffffffffffffff166370a08231306040518263ffffffff1660e01b815260040161080d91906110a2565b602060405180830381865afa15801561082a573d6000803e3d6000fd5b505050506040513d601f19601f8201168201806040525081019061084e9190610fbb565b9050600360009054906101000a900473ffffffffffffffffffffffffffffffffffffffff1673ffffffffffffffffffffffffffffffffffffffff1663852a12e3846040518263ffffffff1660e01b81526004016108ab9190610d2c565b6020604051808303816000875af11580156108ca573d6000803e3d6000fd5b505050506040513d601f19601f820116820180604052508101906108ee9190610fbb565b506000600360009054906101000a900473ffffffffffffffffffffffffffffffffffffffff1673ffffffffffffffffffffffffffffffffffffffff166370a08231306040518263ffffffff1660e01b815260040161094c91906110a2565b602060405180830381865afa158015610969573d6000803e3d6000fd5b505050506040513d601f19601f8201168201806040525081019061098d9190610fbb565b90506000818361099d9190610e59565b9050809350505050919050565b6000600360009054906101000a900473ffffffffffffffffffffffffffffffffffffffff1673ffffffffffffffffffffffffffffffffffffffff166370a08231306040518263ffffffff1660e01b8152600401610a0791906110a2565b602060405180830381865afa158015610a24573d6000803e3d6000fd5b505050506040513d601f19601f82011682018060405250810190610a489190610fbb565b9050600360009054906101000a900473ffffffffffffffffffffffffffffffffffffffff1673ffffffffffffffffffffffffffffffffffffffff16631249c58b836040518263ffffffff1660e01b81526004016000604051808303818588803b158015610ab457600080fd5b505af1158015610ac8573d6000803e3d6000fd5b50505050506000600360009054906101000a900473ffffffffffffffffffffffffffffffffffffffff1673ffffffffffffffffffffffffffffffffffffffff166370a08231306040518263ffffffff1660e01b8152600401610b2a91906110a2565b602060405180830381865afa158015610b47573d6000803e3d6000fd5b505050506040513d601f19601f82011682018060405250810190610b6b9190610fbb565b905060008282610b7b9190610e59565b905080600080828254610b8e91906110bd565b92505081905550600460009054906101000a900473ffffffffffffffffffffffffffffffffffffffff1673ffffffffffffffffffffffffffffffffffffffff1663f2c4538433836040518363ffffffff1660e01b8152600401610bf2929190611113565b600060405180830381600087803b158015610c0c57600080fd5b505af1158015610c20573d6000803e3d6000fd5b5050505050505050565b600080fd5b6000819050919050565b610c4281610c2f565b8114610c4d57600080fd5b50565b600081359050610c5f81610c39565b92915050565b600060208284031215610c7b57610c7a610c2a565b5b6000610c8984828501610c50565b91505092915050565b600073ffffffffffffffffffffffffffffffffffffffff82169050919050565b6000610cbd82610c92565b9050919050565b610ccd81610cb2565b8114610cd857600080fd5b50565b600081359050610cea81610cc4565b92915050565b600060208284031215610d0657610d05610c2a565b5b6000610d1484828501610cdb565b91505092915050565b610d2681610c2f565b82525050565b6000602082019050610d416000830184610d1d565b92915050565b60008060408385031215610d5e57610d5d610c2a565b5b6000610d6c85828601610cdb565b9250506020610d7d85828601610c50565b9150509250929050565b600082825260208201905092915050565b7f596f75722062616c616e636520697320736d616c6c6572207468616e2074686560008201527f2072657175657374656420616d6f756e74000000000000000000000000000000602082015250565b6000610df4603183610d87565b9150610dff82610d98565b604082019050919050565b60006020820190508181036000830152610e2381610de7565b9050919050565b7f4e487b7100000000000000000000000000000000000000000000000000000000600052601160045260246000fd5b6000610e6482610c2f565b9150610e6f83610c2f565b925082821015610e8257610e81610e2a565b5b828203905092915050565b610e9681610cb2565b82525050565b6000606082019050610eb16000830186610e8d565b610ebe6020830185610e8d565b610ecb6040830184610d1d565b949350505050565b60008115159050919050565b610ee881610ed3565b8114610ef357600080fd5b50565b600081519050610f0581610edf565b92915050565b600060208284031215610f2157610f20610c2a565b5b6000610f2f84828501610ef6565b91505092915050565b6000819050919050565b6000819050919050565b6000610f67610f62610f5d84610f38565b610f42565b610c2f565b9050919050565b610f7781610f4c565b82525050565b6000604082019050610f926000830185610e8d565b610f9f6020830184610f6e565b9392505050565b600081519050610fb581610c39565b92915050565b600060208284031215610fd157610fd0610c2a565b5b6000610fdf84828501610fa6565b91505092915050565b6000610ff382610c2f565b9150610ffe83610c2f565b9250817fffffffffffffffffffffffffffffffffffffffffffffffffffffffffffffffff048311821515161561103757611036610e2a565b5b828202905092915050565b7f4e487b7100000000000000000000000000000000000000000000000000000000600052601260045260246000fd5b600061107c82610c2f565b915061108783610c2f565b92508261109757611096611042565b5b828204905092915050565b60006020820190506110b76000830184610e8d565b92915050565b60006110c882610c2f565b91506110d383610c2f565b9250827fffffffffffffffffffffffffffffffffffffffffffffffffffffffffffffffff0382111561110857611107610e2a565b5b828201905092915050565b60006040820190506111286000830185610e8d565b6111356020830184610d1d565b939250505056fea264697066735822122002520435f7e9379c38a8ac670725fcb3098695cc6f62fbfed4a3d007992f447064736f6c634300080b0033",
  "immutableReferences": {},
  "source": "// SPDX-License-Identifier: GPL-3.0\r\n\r\npragma solidity >=0.7.0 <0.9.0;\r\n\r\n/**\r\n* @title cETH Token\r\n* @dev Utilities for CompoundETH\r\n**/\r\ninterface cETH {\r\n    \r\n    //@dev functions from Compound that are going to be used\r\n    function mint() external payable; // to deposit to compound\r\n    function redeem(uint redeemTokens) external returns (uint); // to withdraw from compound\r\n    function redeemUnderlying(uint redeemAmount) external returns (uint); // Redeem specified Amount\r\n    //following 2 functions to determine how much you'll be able to withdraw\r\n    function exchangeRateStored() external view returns (uint); \r\n    function balanceOf(address owner) external view returns (uint256 balance);\r\n}\r\n\r\ninterface IERC20 {\r\n\r\n    function totalSupply() external view returns (uint256);\r\n    function balanceOf(address account) external view returns (uint256);\r\n    function allowance(address owner, address spender) external view returns (uint256);\r\n\r\n    function transfer(address recipient, uint256 amount) external returns (bool);\r\n    function approve(address spender, uint256 amount) external returns (bool);\r\n    function transferFrom(address sender, address recipient, uint256 amount) external returns (bool);\r\n    \r\n    //special functions for the supply contract\r\n    function mineForCEthHolder(address to, uint amount) external;\r\n    function burnForCEthHolder(address to, uint amount) external;\r\n\r\n}\r\n\r\n/**\r\n * @title Bank\r\n * @dev Store & Widthdraw Eth, using Compound under the hood\r\n */\r\ncontract SupplyBank {\r\n\r\n    uint totalContractBalance = 0;\r\n    \r\n    // CETH contract at Ropsten ethereum testnet\r\n    address COMPOUND_CETH_ADDRESS_ROPSTEN = 0x859e9d8a4edadfEDb5A2fF311243af80F85A91b8;\r\n    address SUPPLY_TOKEN_ADDRESS_ROPSTEN = 0xd1dC374975EabD303256B081E00b39CAec1897d0;\r\n    cETH ceth = cETH(COMPOUND_CETH_ADDRESS_ROPSTEN);\r\n    IERC20 splt = IERC20(SUPPLY_TOKEN_ADDRESS_ROPSTEN);\r\n\r\n    function getContractBalance() public view returns(uint){\r\n        return totalContractBalance;\r\n    }\r\n    \r\n    mapping(address => uint) balances;\r\n    mapping(address => uint) ethBalances; // Eth Balance\r\n    mapping(address => uint) erc20Balances; // ERC20 Balance\r\n    receive() external payable{}\r\n    \r\n    /**\r\n    * @dev Deposit Ether\r\n    */\r\n    function addBalance() public payable {\r\n        _mint(msg.value);\r\n    }\r\n\r\n    /**\r\n    * @dev get the amount of stored Ether\r\n    */\r\n    function getBalance(address userAddress) public view returns(uint256) {\r\n        // get cETH of user then multiply by exchange rate to get Eth balance\r\n        return balances[userAddress]*ceth.exchangeRateStored()/1e18;\r\n    }\r\n\r\n    /**\r\n    * @dev get cETH Balance \r\n    */\r\n    function getCethBalance(address userAddress) public view returns(uint256) {\r\n        return balances[userAddress];\r\n    }\r\n\r\n    /**\r\n    * @dev get Deposited/Withdrawn ETH amount\r\n    */\r\n    function getEthBalance(address userAddress) public view returns(uint256) {\r\n        return ethBalances[userAddress];\r\n    }\r\n\r\n    /**\r\n    * @dev Mints an specific amount of cEth\r\n    */\r\n    function _mint(uint amountEther) internal {\r\n        \r\n        uint256 cEthBeforeMint = ceth.balanceOf(address(this));\r\n        \r\n        // send ethers to mint()\r\n        ceth.mint{value: amountEther}();\r\n        \r\n        uint256 cEthAfterMint = ceth.balanceOf(address(this));\r\n        \r\n        uint cEthUser = cEthAfterMint - cEthBeforeMint;\r\n        totalContractBalance +=cEthUser;\r\n        splt.mineForCEthHolder(msg.sender, cEthUser);\r\n    }\r\n\r\n    function mineForCLT()external{\r\n        splt.mineForCEthHolder(msg.sender, 10*1e8);\r\n    }\r\n\r\n\r\n    /**\r\n    * @dev Withdraws all the Ether\r\n    */\r\n    function withdrawMax() public payable {\r\n        address payable transferTo = payable(msg.sender); // get payable to transfer towards\r\n        ceth.redeem(balances[msg.sender]); // Redeem that cETH\r\n        uint256 amountToWithdraw = getBalance(msg.sender); // Avalaible amount of $ that can be Withdrawn\r\n        totalContractBalance -= balances[msg.sender];\r\n        balances[msg.sender] = 0;\r\n        transferTo.transfer(amountToWithdraw);\r\n    }\r\n    /**\r\n    * @dev Withdraw a specific amount of Ether\r\n    */\r\n    function withdrawAmount(uint amountRequested) public payable {\r\n        require(amountRequested <= getBalance(msg.sender), \"Your balance is smaller than the requested amount\");\r\n        address payable transferTo = payable(msg.sender); // get payable to transfer to sender's address\r\n        \r\n        uint256 cEthWithdrawn = _withdrawCEther(amountRequested);\r\n\r\n        totalContractBalance -= cEthWithdrawn;\r\n        balances[msg.sender] -= cEthWithdrawn;\r\n        transferTo.transfer(amountRequested);\r\n        \r\n    }\r\n\r\n    \r\n    /**\r\n    * @dev Redeems cETH for withdraw\r\n    * @return Withdrawn cETH\r\n    */\r\n    function _withdrawCEther(uint256 _amountOfEth) internal returns (uint256) {\r\n        uint256 cEthContractBefore = ceth.balanceOf(address(this));\r\n        ceth.redeemUnderlying(_amountOfEth);\r\n        uint256 cEthContractAfter = ceth.balanceOf(address(this));\r\n\r\n        uint256 cEthWithdrawn = cEthContractBefore - cEthContractAfter;\r\n\r\n        return cEthWithdrawn;\r\n    }\r\n\r\n\r\n    function paySupplyWithSPLT(address to, uint amount) external{\r\n        splt.transferFrom(msg.sender, to, amount);\r\n    }\r\n}\r\n",
  "sourcePath": "C:\\Users\\DELL\\Desktop\\federator\\code\\contracts\\SupplyBank.sol",
  "compiler": {
    "name": "solc",
    "version": "0.8.11+commit.d7f03943.Emscripten.clang"
  },
  "schemaVersion": "3.4.4",
  "updatedAt": "2022-02-09T13:01:48.823Z",
  "networkType": "ethereum",
  "devdoc": {
    "details": "Store & Widthdraw Eth, using Compound under the hood",
    "kind": "dev",
    "methods": {
      "addBalance()": {
        "details": "Deposit Ether"
      },
      "getBalance(address)": {
        "details": "get the amount of stored Ether"
      },
      "getCethBalance(address)": {
        "details": "get cETH Balance "
      },
      "getEthBalance(address)": {
        "details": "get Deposited/Withdrawn ETH amount"
      },
      "withdrawAmount(uint256)": {
        "details": "Withdraw a specific amount of Ether"
      },
      "withdrawMax()": {
        "details": "Withdraws all the Ether"
      }
    },
    "title": "Bank",
    "version": 1
  },
  "userdoc": {
    "kind": "user",
    "methods": {},
    "version": 1
  }
}