{
  "contractName": "SupplyBank",
  "abi": [
    {
      "stateMutability": "payable",
      "type": "receive",
      "payable": true
    },
    {
      "inputs": [],
      "name": "getContractCEthBalance",
      "outputs": [
        {
          "internalType": "uint256",
          "name": "",
          "type": "uint256"
        }
      ],
      "stateMutability": "view",
      "type": "function",
      "constant": true
    },
    {
      "inputs": [],
      "name": "getContractEthBalance",
      "outputs": [
        {
          "internalType": "uint256",
          "name": "",
          "type": "uint256"
        }
      ],
      "stateMutability": "view",
      "type": "function",
      "constant": true
    },
    {
      "inputs": [],
      "name": "addBalance",
      "outputs": [],
      "stateMutability": "payable",
      "type": "function",
      "payable": true
    },
    {
      "inputs": [
        {
          "internalType": "uint256",
          "name": "tokenAmount",
          "type": "uint256"
        }
      ],
      "name": "withdrawAmount",
      "outputs": [],
      "stateMutability": "payable",
      "type": "function",
      "payable": true
    },
    {
      "inputs": [
        {
          "internalType": "address",
          "name": "to",
          "type": "address"
        },
        {
          "internalType": "uint256",
          "name": "amount",
          "type": "uint256"
        }
      ],
      "name": "paySupplierWithSPL",
      "outputs": [],
      "stateMutability": "nonpayable",
      "type": "function"
    }
  ],
  "bytecode": "0x60806040526000805573859e9d8a4edadfedb5a2ff311243af80f85a91b8600160006101000a81548173ffffffffffffffffffffffffffffffffffffffff021916908373ffffffffffffffffffffffffffffffffffffffff1602179055507361eac9bf571782c62262a730f07a107f594f1c21600260006101000a81548173ffffffffffffffffffffffffffffffffffffffff021916908373ffffffffffffffffffffffffffffffffffffffff160217905550600160009054906101000a900473ffffffffffffffffffffffffffffffffffffffff16600360006101000a81548173ffffffffffffffffffffffffffffffffffffffff021916908373ffffffffffffffffffffffffffffffffffffffff160217905550600260009054906101000a900473ffffffffffffffffffffffffffffffffffffffff16600460006101000a81548173ffffffffffffffffffffffffffffffffffffffff021916908373ffffffffffffffffffffffffffffffffffffffff16021790555034801561018457600080fd5b50610b64806101946000396000f3fe60806040526004361061004e5760003560e01c80630562b9f71461005a5780634de57d751461007657806359f3a63d146100a1578063b163cc38146100cc578063c16d21d7146100d657610055565b3661005557005b600080fd5b610074600480360381019061006f9190610795565b6100ff565b005b34801561008257600080fd5b5061008b6102a2565b60405161009891906107d1565b60405180910390f35b3480156100ad57600080fd5b506100b661035a565b6040516100c391906107d1565b60405180910390f35b6100d4610363565b005b3480156100e257600080fd5b506100fd60048036038101906100f8919061084a565b61036e565b005b600460009054906101000a900473ffffffffffffffffffffffffffffffffffffffff1673ffffffffffffffffffffffffffffffffffffffff166323b872dd3330846040518463ffffffff1660e01b815260040161015e93929190610899565b6020604051808303816000875af115801561017d573d6000803e3d6000fd5b505050506040513d601f19601f820116820180604052508101906101a19190610908565b5060006101ad82610415565b9050600360009054906101000a900473ffffffffffffffffffffffffffffffffffffffff1673ffffffffffffffffffffffffffffffffffffffff166370a08231306040518263ffffffff1660e01b815260040161020a9190610935565b602060405180830381865afa158015610227573d6000803e3d6000fd5b505050506040513d601f19601f8201168201806040525081019061024b9190610965565b60008190555060003390508073ffffffffffffffffffffffffffffffffffffffff166108fc839081150290604051600060405180830381858888f1935050505015801561029c573d6000803e3d6000fd5b50505050565b6000670de0b6b3a7640000600360009054906101000a900473ffffffffffffffffffffffffffffffffffffffff1673ffffffffffffffffffffffffffffffffffffffff1663182df0f56040518163ffffffff1660e01b8152600401602060405180830381865afa15801561031a573d6000803e3d6000fd5b505050506040513d601f19601f8201168201806040525081019061033e9190610965565b60005461034b91906109c1565b6103559190610a4a565b905090565b60008054905090565b61036c346104da565b565b600460009054906101000a900473ffffffffffffffffffffffffffffffffffffffff1673ffffffffffffffffffffffffffffffffffffffff166323b872dd3384846040518463ffffffff1660e01b81526004016103cd93929190610899565b6020604051808303816000875af11580156103ec573d6000803e3d6000fd5b505050506040513d601f19601f820116820180604052508101906104109190610908565b505050565b600080479050600360009054906101000a900473ffffffffffffffffffffffffffffffffffffffff1673ffffffffffffffffffffffffffffffffffffffff1663db006a75846040518263ffffffff1660e01b815260040161047691906107d1565b6020604051808303816000875af1158015610495573d6000803e3d6000fd5b505050506040513d601f19601f820116820180604052508101906104b99190610965565b506000479050600082826104cd9190610a7b565b9050809350505050919050565b6000600360009054906101000a900473ffffffffffffffffffffffffffffffffffffffff1673ffffffffffffffffffffffffffffffffffffffff166370a08231306040518263ffffffff1660e01b81526004016105379190610935565b602060405180830381865afa158015610554573d6000803e3d6000fd5b505050506040513d601f19601f820116820180604052508101906105789190610965565b9050600360009054906101000a900473ffffffffffffffffffffffffffffffffffffffff1673ffffffffffffffffffffffffffffffffffffffff16631249c58b836040518263ffffffff1660e01b81526004016000604051808303818588803b1580156105e457600080fd5b505af11580156105f8573d6000803e3d6000fd5b50505050506000600360009054906101000a900473ffffffffffffffffffffffffffffffffffffffff1673ffffffffffffffffffffffffffffffffffffffff166370a08231306040518263ffffffff1660e01b815260040161065a9190610935565b602060405180830381865afa158015610677573d6000803e3d6000fd5b505050506040513d601f19601f8201168201806040525081019061069b9190610965565b9050600082826106ab9190610a7b565b9050806000808282546106be9190610aaf565b92505081905550600460009054906101000a900473ffffffffffffffffffffffffffffffffffffffff1673ffffffffffffffffffffffffffffffffffffffff1663f2c4538433836040518363ffffffff1660e01b8152600401610722929190610b05565b600060405180830381600087803b15801561073c57600080fd5b505af1158015610750573d6000803e3d6000fd5b5050505050505050565b600080fd5b6000819050919050565b6107728161075f565b811461077d57600080fd5b50565b60008135905061078f81610769565b92915050565b6000602082840312156107ab576107aa61075a565b5b60006107b984828501610780565b91505092915050565b6107cb8161075f565b82525050565b60006020820190506107e660008301846107c2565b92915050565b600073ffffffffffffffffffffffffffffffffffffffff82169050919050565b6000610817826107ec565b9050919050565b6108278161080c565b811461083257600080fd5b50565b6000813590506108448161081e565b92915050565b600080604083850312156108615761086061075a565b5b600061086f85828601610835565b925050602061088085828601610780565b9150509250929050565b6108938161080c565b82525050565b60006060820190506108ae600083018661088a565b6108bb602083018561088a565b6108c860408301846107c2565b949350505050565b60008115159050919050565b6108e5816108d0565b81146108f057600080fd5b50565b600081519050610902816108dc565b92915050565b60006020828403121561091e5761091d61075a565b5b600061092c848285016108f3565b91505092915050565b600060208201905061094a600083018461088a565b92915050565b60008151905061095f81610769565b92915050565b60006020828403121561097b5761097a61075a565b5b600061098984828501610950565b91505092915050565b7f4e487b7100000000000000000000000000000000000000000000000000000000600052601160045260246000fd5b60006109cc8261075f565b91506109d78361075f565b9250817fffffffffffffffffffffffffffffffffffffffffffffffffffffffffffffffff0483118215151615610a1057610a0f610992565b5b828202905092915050565b7f4e487b7100000000000000000000000000000000000000000000000000000000600052601260045260246000fd5b6000610a558261075f565b9150610a608361075f565b925082610a7057610a6f610a1b565b5b828204905092915050565b6000610a868261075f565b9150610a918361075f565b925082821015610aa457610aa3610992565b5b828203905092915050565b6000610aba8261075f565b9150610ac58361075f565b9250827fffffffffffffffffffffffffffffffffffffffffffffffffffffffffffffffff03821115610afa57610af9610992565b5b828201905092915050565b6000604082019050610b1a600083018561088a565b610b2760208301846107c2565b939250505056fea2646970667358221220e9c2e2c9bd97cec7ade1b40df49b6fff1aeeddd56f67c455eba17e24ac65194b64736f6c634300080b0033",
  "immutableReferences": {},
  "source": "// SPDX-License-Identifier: GPL-3.0\r\n\r\npragma solidity >=0.7.0 <0.9.0;\r\n\r\n/**\r\n* @title cETH Token\r\n* @dev Utilities for CompoundETH\r\n**/\r\ninterface cETH {\r\n    \r\n    //@dev functions from Compound that are going to be used\r\n    function mint() external payable; // to deposit to compound\r\n    function redeem(uint redeemTokens) external returns (uint); // to withdraw from compound\r\n    //following 2 functions to determine how much you'll be able to withdraw\r\n    function exchangeRateStored() external view returns (uint); \r\n    function balanceOf(address owner) external view returns (uint256 balance);\r\n}\r\n\r\ninterface IERC20 {\r\n\r\n    function totalSupply() external view returns (uint256);\r\n    function balanceOf(address account) external view returns (uint256);\r\n    function allowance(address owner, address spender) external view returns (uint256);\r\n\r\n    function transfer(address recipient, uint256 amount) external returns (bool);\r\n    function approve(address spender, uint256 amount) external returns (bool);\r\n    function transferFrom(address sender, address recipient, uint256 amount) external returns (bool);\r\n    \r\n    //special functions for the supply contract\r\n    function mineForCEthHolder(address to, uint amount) external;\r\n    function burnForCEthHolder(address to, uint amount) external;\r\n\r\n}\r\n\r\n/**\r\n * @title Bank\r\n * @dev Store & Widthdraw Eth, using Compound under the hood\r\n */\r\ncontract SupplyBank {\r\n\r\n    uint totalContractBalance = 0;\r\n    \r\n    // CETH contract at Ropsten ethereum testnet\r\n    address COMPOUND_CETH_ADDRESS_ROPSTEN = 0x859e9d8a4edadfEDb5A2fF311243af80F85A91b8;\r\n    address SUPPLY_COIN_ADDRESS_ROPSTEN = 0x61EAc9bF571782c62262a730F07A107f594F1c21;\r\n    cETH ceth = cETH(COMPOUND_CETH_ADDRESS_ROPSTEN);\r\n\r\n    IERC20 splCoin = IERC20(SUPPLY_COIN_ADDRESS_ROPSTEN);\r\n\r\n    function getContractCEthBalance() public view returns(uint){\r\n        return totalContractBalance;\r\n    }\r\n    function getContractEthBalance() public view returns(uint){\r\n        return totalContractBalance*ceth.exchangeRateStored()/1e18;\r\n    }\r\n    \r\n\r\n    receive() external payable{}\r\n    \r\n    /**\r\n    * @dev Deposit Ether\r\n    */\r\n    function addBalance() public payable {\r\n        _mint(msg.value);\r\n    }\r\n\r\n\r\n    /**\r\n    * @dev Mints an specific amount of cEth\r\n    */\r\n    function _mint(uint amountEther) internal {\r\n        \r\n        uint256 cEthBeforeMint = ceth.balanceOf(address(this));\r\n        \r\n        // send ethers to mint()\r\n        ceth.mint{value: amountEther}();\r\n        \r\n        uint256 cEthAfterMint = ceth.balanceOf(address(this));\r\n        \r\n        uint cEthUser = cEthAfterMint - cEthBeforeMint;\r\n        totalContractBalance +=cEthUser;\r\n        splCoin.mineForCEthHolder(msg.sender, cEthUser);\r\n    }\r\n\r\n    /**\r\n    * @dev Withdraw a specific amount of Ether\r\n    */\r\n    function withdrawAmount(uint tokenAmount) public payable {\r\n        splCoin.transferFrom(msg.sender, address(this), tokenAmount);//needs approval\r\n        uint256 EthWithdrawn = _withdrawCEther(tokenAmount);//cETH = TOKEN AMOUNT\r\n        totalContractBalance = ceth.balanceOf(address(this));\r\n\r\n        address payable transferTo = payable(msg.sender); // get payable to transfer to sender's address\r\n        transferTo.transfer(EthWithdrawn);\r\n        \r\n    }\r\n    /**\r\n    * @dev Redeems cETH for withdraw\r\n    * @return Withdrawn cETH\r\n    */\r\n    function _withdrawCEther(uint256 _amountOfCEth) internal returns (uint256) {\r\n     //   uint256 cEthContractBefore = ceth.balanceOf(address(this));\r\n        uint256 EthContractBefore = address(this).balance;\r\n\r\n        ceth.redeem(_amountOfCEth);\r\n\r\n     //   uint256 cEthContractAfter = ceth.balanceOf(address(this));\r\n        uint256 EthContractAfter = address(this).balance;\r\n\r\n      //  uint256 cEthWithdrawn = cEthContractBefore - cEthContractAfter;\r\n        uint256 EthWithdrawn = EthContractAfter - EthContractBefore;\r\n        return EthWithdrawn;\r\n    }\r\n\r\n\r\n    function paySupplierWithSPL(address to, uint amount) external{\r\n        splCoin.transferFrom(msg.sender, to, amount);\r\n    }\r\n}\r\n",
  "sourcePath": "C:\\Users\\DELL\\Desktop\\federator\\code\\contracts\\SupplyBank.sol",
  "compiler": {
    "name": "solc",
    "version": "0.8.11+commit.d7f03943.Emscripten.clang"
  },
  "schemaVersion": "3.4.4",
  "updatedAt": "2022-02-10T03:26:17.315Z",
  "networkType": "ethereum",
  "devdoc": {
    "details": "Store & Widthdraw Eth, using Compound under the hood",
    "kind": "dev",
    "methods": {
      "addBalance()": {
        "details": "Deposit Ether"
      },
      "withdrawAmount(uint256)": {
        "details": "Withdraw a specific amount of Ether"
      }
    },
    "title": "Bank",
    "version": 1
  },
  "userdoc": {
    "kind": "user",
    "methods": {},
    "version": 1
  }
}