{
  "contractName": "Tracker",
  "abi": [
    {
      "inputs": [],
      "stateMutability": "nonpayable",
      "type": "constructor"
    },
    {
      "inputs": [
        {
          "internalType": "address",
          "name": "id",
          "type": "address"
        }
      ],
      "name": "getManufacturer",
      "outputs": [
        {
          "components": [
            {
              "internalType": "bytes32",
              "name": "name",
              "type": "bytes32"
            },
            {
              "internalType": "bytes32",
              "name": "description",
              "type": "bytes32"
            },
            {
              "internalType": "uint256",
              "name": "createdAt",
              "type": "uint256"
            }
          ],
          "internalType": "struct Tracker.Manufacturer",
          "name": "",
          "type": "tuple"
        }
      ],
      "stateMutability": "view",
      "type": "function",
      "constant": true
    },
    {
      "inputs": [
        {
          "internalType": "address",
          "name": "id",
          "type": "address"
        }
      ],
      "name": "getTransitioner",
      "outputs": [
        {
          "components": [
            {
              "internalType": "bytes32",
              "name": "name",
              "type": "bytes32"
            },
            {
              "internalType": "bytes32",
              "name": "description",
              "type": "bytes32"
            },
            {
              "internalType": "uint256",
              "name": "createdAt",
              "type": "uint256"
            }
          ],
          "internalType": "struct Tracker.Transitioner",
          "name": "",
          "type": "tuple"
        }
      ],
      "stateMutability": "view",
      "type": "function",
      "constant": true
    },
    {
      "inputs": [
        {
          "internalType": "string",
          "name": "id",
          "type": "string"
        }
      ],
      "name": "getItem",
      "outputs": [
        {
          "components": [
            {
              "internalType": "string",
              "name": "name",
              "type": "string"
            },
            {
              "internalType": "string",
              "name": "description",
              "type": "string"
            },
            {
              "internalType": "uint256",
              "name": "createdAt",
              "type": "uint256"
            },
            {
              "components": [
                {
                  "internalType": "address",
                  "name": "transitionerAddr",
                  "type": "address"
                },
                {
                  "internalType": "bool",
                  "name": "decision",
                  "type": "bool"
                },
                {
                  "internalType": "uint256",
                  "name": "createdAt",
                  "type": "uint256"
                }
              ],
              "internalType": "struct Tracker.Transition[]",
              "name": "transitions",
              "type": "tuple[]"
            }
          ],
          "internalType": "struct Tracker.Item",
          "name": "",
          "type": "tuple"
        }
      ],
      "stateMutability": "view",
      "type": "function",
      "constant": true
    },
    {
      "inputs": [
        {
          "internalType": "address",
          "name": "id",
          "type": "address"
        },
        {
          "components": [
            {
              "internalType": "bytes32",
              "name": "name",
              "type": "bytes32"
            },
            {
              "internalType": "bytes32",
              "name": "description",
              "type": "bytes32"
            },
            {
              "internalType": "uint256",
              "name": "createdAt",
              "type": "uint256"
            }
          ],
          "internalType": "struct Tracker.Manufacturer",
          "name": "manufacturer",
          "type": "tuple"
        }
      ],
      "name": "addManufacturer",
      "outputs": [],
      "stateMutability": "nonpayable",
      "type": "function"
    },
    {
      "inputs": [
        {
          "internalType": "address",
          "name": "id",
          "type": "address"
        },
        {
          "components": [
            {
              "internalType": "bytes32",
              "name": "name",
              "type": "bytes32"
            },
            {
              "internalType": "bytes32",
              "name": "description",
              "type": "bytes32"
            },
            {
              "internalType": "uint256",
              "name": "createdAt",
              "type": "uint256"
            }
          ],
          "internalType": "struct Tracker.Transitioner",
          "name": "transitioner",
          "type": "tuple"
        }
      ],
      "name": "addTransitioner",
      "outputs": [],
      "stateMutability": "nonpayable",
      "type": "function"
    },
    {
      "inputs": [
        {
          "internalType": "string",
          "name": "id",
          "type": "string"
        },
        {
          "components": [
            {
              "internalType": "string",
              "name": "name",
              "type": "string"
            },
            {
              "internalType": "string",
              "name": "description",
              "type": "string"
            },
            {
              "internalType": "uint256",
              "name": "createdAt",
              "type": "uint256"
            },
            {
              "components": [
                {
                  "internalType": "address",
                  "name": "transitionerAddr",
                  "type": "address"
                },
                {
                  "internalType": "bool",
                  "name": "decision",
                  "type": "bool"
                },
                {
                  "internalType": "uint256",
                  "name": "createdAt",
                  "type": "uint256"
                }
              ],
              "internalType": "struct Tracker.Transition[]",
              "name": "transitions",
              "type": "tuple[]"
            }
          ],
          "internalType": "struct Tracker.Item",
          "name": "item",
          "type": "tuple"
        }
      ],
      "name": "addItem",
      "outputs": [],
      "stateMutability": "nonpayable",
      "type": "function"
    },
    {
      "inputs": [
        {
          "internalType": "string",
          "name": "id",
          "type": "string"
        },
        {
          "internalType": "bool",
          "name": "decision",
          "type": "bool"
        }
      ],
      "name": "addTransition",
      "outputs": [],
      "stateMutability": "nonpayable",
      "type": "function"
    },
    {
      "inputs": [
        {
          "internalType": "string",
          "name": "id",
          "type": "string"
        }
      ],
      "name": "flagProduct",
      "outputs": [],
      "stateMutability": "nonpayable",
      "type": "function"
    }
  ],
  "bytecode": "0x60a06040523480156200001157600080fd5b503373ffffffffffffffffffffffffffffffffffffffff1660808173ffffffffffffffffffffffffffffffffffffffff168152505060405180606001604052807f546e616d6500000000000000000000000000000000000000000000000000000081526020017f5464657363000000000000000000000000000000000000000000000000000000815260200142815250600160003373ffffffffffffffffffffffffffffffffffffffff1673ffffffffffffffffffffffffffffffffffffffff16815260200190815260200160002060008201518160000155602082015181600101556040820151816002015590505060405180606001604052807f4d6e616d6500000000000000000000000000000000000000000000000000000081526020017f4d646573630000000000000000000000000000000000000000000000000000008152602001428152506000803373ffffffffffffffffffffffffffffffffffffffff1673ffffffffffffffffffffffffffffffffffffffff16815260200190815260200160002060008201518160000155602082015181600101556040820151816002015590505060006002604051620001cd906200046c565b908152602001604051809103902090506040518060400160405280600581526020017f506e616d650000000000000000000000000000000000000000000000000000008152508160000190805190602001906200022c92919062000361565b506040518060400160405280600581526020017f50646573630000000000000000000000000000000000000000000000000000008152508160010190805190602001906200027c92919062000361565b504281600201819055508060030160405180606001604052803373ffffffffffffffffffffffffffffffffffffffff16815260200160011515815260200142815250908060018154018082558091505060019003906000526020600020906002020160009091909190915060008201518160000160006101000a81548173ffffffffffffffffffffffffffffffffffffffff021916908373ffffffffffffffffffffffffffffffffffffffff16021790555060208201518160000160146101000a81548160ff02191690831515021790555060408201518160010155505050620004e8565b8280546200036f90620004b2565b90600052602060002090601f016020900481019282620003935760008555620003df565b82601f10620003ae57805160ff1916838001178555620003df565b82800160010185558215620003df579182015b82811115620003de578251825591602001919060010190620003c1565b5b509050620003ee9190620003f2565b5090565b5b808211156200040d576000816000905550600101620003f3565b5090565b600081905092915050565b7f70726f6430300000000000000000000000000000000000000000000000000000600082015250565b60006200045460068362000411565b915062000461826200041c565b600682019050919050565b6000620004798262000445565b9150819050919050565b7f4e487b7100000000000000000000000000000000000000000000000000000000600052602260045260246000fd5b60006002820490506001821680620004cb57607f821691505b60208210811415620004e257620004e162000483565b5b50919050565b608051611d596200050b600039600081816101c201526106f60152611d596000f3fe608060405234801561001057600080fd5b50600436106100885760003560e01c8063ad8a84671161005b578063ad8a846714610125578063b6010fcd14610141578063bdbcfc4014610171578063d9f475331461018d57610088565b806309a3a4ac1461008d578063191bcef6146100a95780631cffcaf8146100d957806377d510ca146100f5575b600080fd5b6100a760048036038101906100a29190610a92565b6101a9565b005b6100c360048036038101906100be9190610ad2565b61028a565b6040516100d09190610b73565b60405180910390f35b6100f360048036038101906100ee9190610cf3565b610300565b005b61010f600480360381019061010a9190610ad2565b610332565b60405161011c9190610dad565b60405180910390f35b61013f600480360381019061013a9190610e00565b6103a9565b005b61015b60048036038101906101569190610e5c565b61049d565b60405161016891906110ad565b60405180910390f35b61018b600480360381019061018691906110ee565b6106dd565b005b6101a760048036038101906101a29190610e5c565b6107bd565b005b3373ffffffffffffffffffffffffffffffffffffffff167f000000000000000000000000000000000000000000000000000000000000000073ffffffffffffffffffffffffffffffffffffffff1614610237576040517f08c379a000000000000000000000000000000000000000000000000000000000815260040161022e9061118b565b60405180910390fd5b80600160008473ffffffffffffffffffffffffffffffffffffffff1673ffffffffffffffffffffffffffffffffffffffff16815260200190815260200160002081816102839190611397565b9050505050565b610292610986565b6000808373ffffffffffffffffffffffffffffffffffffffff1673ffffffffffffffffffffffffffffffffffffffff16815260200190815260200160002060405180606001604052908160008201548152602001600182015481526020016002820154815250509050919050565b8060028360405161031191906113e1565b9081526020016040518091039020818161032b9190611c05565b9050505050565b61033a6109ad565b600160008373ffffffffffffffffffffffffffffffffffffffff1673ffffffffffffffffffffffffffffffffffffffff16815260200190815260200160002060405180606001604052908160008201548152602001600182015481526020016002820154815250509050919050565b6002826040516103b991906113e1565b908152602001604051809103902060030160405180606001604052803373ffffffffffffffffffffffffffffffffffffffff168152602001831515815260200142815250908060018154018082558091505060019003906000526020600020906002020160009091909190915060008201518160000160006101000a81548173ffffffffffffffffffffffffffffffffffffffff021916908373ffffffffffffffffffffffffffffffffffffffff16021790555060208201518160000160146101000a81548160ff0219169083151502179055506040820151816001015550505050565b6104a56109d4565b6002826040516104b591906113e1565b90815260200160405180910390206040518060800160405290816000820180546104de906114a4565b80601f016020809104026020016040519081016040528092919081815260200182805461050a906114a4565b80156105575780601f1061052c57610100808354040283529160200191610557565b820191906000526020600020905b81548152906001019060200180831161053a57829003601f168201915b50505050508152602001600182018054610570906114a4565b80601f016020809104026020016040519081016040528092919081815260200182805461059c906114a4565b80156105e95780601f106105be576101008083540402835291602001916105e9565b820191906000526020600020905b8154815290600101906020018083116105cc57829003601f168201915b505050505081526020016002820154815260200160038201805480602002602001604051908101604052809291908181526020016000905b828210156106ce57838290600052602060002090600202016040518060600160405290816000820160009054906101000a900473ffffffffffffffffffffffffffffffffffffffff1673ffffffffffffffffffffffffffffffffffffffff1673ffffffffffffffffffffffffffffffffffffffff1681526020016000820160149054906101000a900460ff1615151515815260200160018201548152505081526020019060010190610621565b50505050815250509050919050565b3373ffffffffffffffffffffffffffffffffffffffff167f000000000000000000000000000000000000000000000000000000000000000073ffffffffffffffffffffffffffffffffffffffff161461076b576040517f08c379a00000000000000000000000000000000000000000000000000000000081526004016107629061118b565b60405180910390fd5b806000808473ffffffffffffffffffffffffffffffffffffffff1673ffffffffffffffffffffffffffffffffffffffff16815260200190815260200160002081816107b69190611c7a565b9050505050565b803373ffffffffffffffffffffffffffffffffffffffff166002826040516107e591906113e1565b908152602001604051809103902060030160008154811061080957610808611c88565b5b906000526020600020906002020160000160009054906101000a900473ffffffffffffffffffffffffffffffffffffffff1673ffffffffffffffffffffffffffffffffffffffff1614610891576040517f08c379a000000000000000000000000000000000000000000000000000000000815260040161088890611d03565b60405180910390fd5b6002826040516108a191906113e1565b908152602001604051809103902060030160405180606001604052803373ffffffffffffffffffffffffffffffffffffffff16815260200160001515815260200142815250908060018154018082558091505060019003906000526020600020906002020160009091909190915060008201518160000160006101000a81548173ffffffffffffffffffffffffffffffffffffffff021916908373ffffffffffffffffffffffffffffffffffffffff16021790555060208201518160000160146101000a81548160ff0219169083151502179055506040820151816001015550505050565b60405180606001604052806000801916815260200160008019168152602001600081525090565b60405180606001604052806000801916815260200160008019168152602001600081525090565b6040518060800160405280606081526020016060815260200160008152602001606081525090565b6000604051905090565b600080fd5b600080fd5b600073ffffffffffffffffffffffffffffffffffffffff82169050919050565b6000610a3b82610a10565b9050919050565b610a4b81610a30565b8114610a5657600080fd5b50565b600081359050610a6881610a42565b92915050565b600080fd5b600060608284031215610a8957610a88610a6e565b5b81905092915050565b60008060808385031215610aa957610aa8610a06565b5b6000610ab785828601610a59565b9250506020610ac885828601610a73565b9150509250929050565b600060208284031215610ae857610ae7610a06565b5b6000610af684828501610a59565b91505092915050565b6000819050919050565b610b1281610aff565b82525050565b6000819050919050565b610b2b81610b18565b82525050565b606082016000820151610b476000850182610b09565b506020820151610b5a6020850182610b09565b506040820151610b6d6040850182610b22565b50505050565b6000606082019050610b886000830184610b31565b92915050565b600080fd5b600080fd5b6000601f19601f8301169050919050565b7f4e487b7100000000000000000000000000000000000000000000000000000000600052604160045260246000fd5b610be182610b98565b810181811067ffffffffffffffff82111715610c0057610bff610ba9565b5b80604052505050565b6000610c136109fc565b9050610c1f8282610bd8565b919050565b600067ffffffffffffffff821115610c3f57610c3e610ba9565b5b610c4882610b98565b9050602081019050919050565b82818337600083830152505050565b6000610c77610c7284610c24565b610c09565b905082815260208101848484011115610c9357610c92610b93565b5b610c9e848285610c55565b509392505050565b600082601f830112610cbb57610cba610b8e565b5b8135610ccb848260208601610c64565b91505092915050565b600060808284031215610cea57610ce9610a6e565b5b81905092915050565b60008060408385031215610d0a57610d09610a06565b5b600083013567ffffffffffffffff811115610d2857610d27610a0b565b5b610d3485828601610ca6565b925050602083013567ffffffffffffffff811115610d5557610d54610a0b565b5b610d6185828601610cd4565b9150509250929050565b606082016000820151610d816000850182610b09565b506020820151610d946020850182610b09565b506040820151610da76040850182610b22565b50505050565b6000606082019050610dc26000830184610d6b565b92915050565b60008115159050919050565b610ddd81610dc8565b8114610de857600080fd5b50565b600081359050610dfa81610dd4565b92915050565b60008060408385031215610e1757610e16610a06565b5b600083013567ffffffffffffffff811115610e3557610e34610a0b565b5b610e4185828601610ca6565b9250506020610e5285828601610deb565b9150509250929050565b600060208284031215610e7257610e71610a06565b5b600082013567ffffffffffffffff811115610e9057610e8f610a0b565b5b610e9c84828501610ca6565b91505092915050565b600081519050919050565b600082825260208201905092915050565b60005b83811015610edf578082015181840152602081019050610ec4565b83811115610eee576000848401525b50505050565b6000610eff82610ea5565b610f098185610eb0565b9350610f19818560208601610ec1565b610f2281610b98565b840191505092915050565b600081519050919050565b600082825260208201905092915050565b6000819050602082019050919050565b610f6281610a30565b82525050565b610f7181610dc8565b82525050565b606082016000820151610f8d6000850182610f59565b506020820151610fa06020850182610f68565b506040820151610fb36040850182610b22565b50505050565b6000610fc58383610f77565b60608301905092915050565b6000602082019050919050565b6000610fe982610f2d565b610ff38185610f38565b9350610ffe83610f49565b8060005b8381101561102f5781516110168882610fb9565b975061102183610fd1565b925050600181019050611002565b5085935050505092915050565b600060808301600083015184820360008601526110598282610ef4565b915050602083015184820360208601526110738282610ef4565b91505060408301516110886040860182610b22565b50606083015184820360608601526110a08282610fde565b9150508091505092915050565b600060208201905081810360008301526110c7818461103c565b905092915050565b6000606082840312156110e5576110e4610a6e565b5b81905092915050565b6000806080838503121561110557611104610a06565b5b600061111385828601610a59565b9250506020611124858286016110cf565b9150509250929050565b600082825260208201905092915050565b7f41646d696e206f6e6c7900000000000000000000000000000000000000000000600082015250565b6000611175600a8361112e565b91506111808261113f565b602082019050919050565b600060208201905081810360008301526111a481611168565b9050919050565b7f4e487b7100000000000000000000000000000000000000000000000000000000600052600060045260246000fd5b6111e381610aff565b81146111ee57600080fd5b50565b600081356111fe816111da565b80915050919050565b60008160001b9050919050565b60007fffffffffffffffffffffffffffffffffffffffffffffffffffffffffffffffff61124084611207565b9350801983169250808416831791505092915050565b600061126182610aff565b9050919050565b60008160001c9050919050565b600061128082611268565b9050919050565b61129082611256565b6112a361129c82611275565b8354611214565b8255505050565b6112b381610b18565b81146112be57600080fd5b50565b600081356112ce816112aa565b80915050919050565b6000819050919050565b60006112fc6112f76112f284610b18565b6112d7565b610b18565b9050919050565b6000819050919050565b611316826112e1565b61132961132282611303565b8354611214565b8255505050565b600081016000830180611342816111f1565b905061134e8184611287565b505050600181016020830180611363816111f1565b905061136f8184611287565b505050600281016040830180611384816112c1565b9050611390818461130d565b5050505050565b6113a18282611330565b5050565b600081905092915050565b60006113bb82610ea5565b6113c581856113a5565b93506113d5818560208601610ec1565b80840191505092915050565b60006113ed82846113b0565b915081905092915050565b600080fd5b600080fd5b600080fd5b60008083356001602003843603038112611424576114236113f8565b5b80840192508235915067ffffffffffffffff821115611446576114456113fd565b5b60208301925060018202360383131561146257611461611402565b5b509250929050565b600082905092915050565b7f4e487b7100000000000000000000000000000000000000000000000000000000600052602260045260246000fd5b600060028204905060018216806114bc57607f821691505b602082108114156114d0576114cf611475565b5b50919050565b60008190508160005260206000209050919050565b60006020601f8301049050919050565b600082821b905092915050565b6000600883026115387fffffffffffffffffffffffffffffffffffffffffffffffffffffffffffffffff826114fb565b61154286836114fb565b95508019841693508086168417925050509392505050565b611563836112e1565b61157761156f82611303565b848454611508565b825550505050565b600090565b61158c61157f565b61159781848461155a565b505050565b5b818110156115bb576115b0600082611584565b60018101905061159d565b5050565b601f821115611600576115d1816114d6565b6115da846114eb565b810160208510156115e9578190505b6115fd6115f5856114eb565b83018261159c565b50505b505050565b600082821c905092915050565b600061162360001984600802611605565b1980831691505092915050565b600061163c8383611612565b9150826002028217905092915050565b611656838361146a565b67ffffffffffffffff81111561166f5761166e610ba9565b5b61167982546114a4565b6116848282856115bf565b6000601f8311600181146116b357600084156116a1578287013590505b6116ab8582611630565b865550611713565b601f1984166116c1866114d6565b60005b828110156116e9578489013582556001820191506020850194506020810190506116c4565b868310156117065784890135611702601f891682611612565b8355505b6001600288020188555050505b50505050505050565b61172783838361164c565b505050565b60008083356001602003843603038112611749576117486113f8565b5b80840192508235915067ffffffffffffffff82111561176b5761176a6113fd565b5b60208301925060608202360383131561178757611786611402565b5b509250929050565b6000819050919050565b600081549050919050565b7f4e487b7100000000000000000000000000000000000000000000000000000000600052601160045260246000fd5b60006117de82610b18565b91506117e983610b18565b9250817fffffffffffffffffffffffffffffffffffffffffffffffffffffffffffffffff0483118215151615611822576118216117a4565b5b828202905092915050565b600081905061183d8260026117d3565b9050919050565b60008190508160005260206000209050919050565b60008082015561186d600060018301611584565b50565b60008214611881576118806111ab565b5b61188a81611859565b5050565b5b818110156118ad576118a2600082611870565b60028101905061188f565b5050565b818310156118ea576118c28261182d565b6118cb8461182d565b6118d483611844565b8181018382016118e4818361188e565b50505050505b505050565b6801000000000000000082111561190957611908610ba9565b5b61191281611799565b8282556119208382846118b1565b505050565b600082905092915050565b6000813561193d81610a42565b80915050919050565b600073ffffffffffffffffffffffffffffffffffffffff61196684611207565b9350801983169250808416831791505092915050565b600061199761199261198d84610a10565b6112d7565b610a10565b9050919050565b60006119a98261197c565b9050919050565b60006119bb8261199e565b9050919050565b6000819050919050565b6119d5826119b0565b6119e86119e1826119c2565b8354611946565b8255505050565b600081356119fc81610dd4565b80915050919050565b60008160a01b9050919050565b600074ff0000000000000000000000000000000000000000611a3384611a05565b9350801983169250808416831791505092915050565b6000611a5482610dc8565b9050919050565b6000819050919050565b611a6e82611a49565b611a81611a7a82611a5b565b8354611a12565b8255505050565b600081016000830180611a9a81611930565b9050611aa681846119cc565b505050600081016020830180611abb816119ef565b9050611ac78184611a65565b505050600181016040830180611adc816112c1565b9050611ae8818461130d565b5050505050565b8115611afe57611afd6111ab565b5b611b088382611a88565b505050565b611b178383611925565b611b2181836118ef565b611b2a8361178f565b611b3383611844565b6000805b84811015611b635783611b4b818486611aef565b60608501945060028401935050600181019050611b37565b5050505050505050565b611b78838383611b0d565b505050565b6000810160008301611b8f8185611407565b611b9a81838661171c565b505050506001810160208301611bb08185611407565b611bbb81838661171c565b50505050600281016040830180611bd1816112c1565b9050611bdd818461130d565b5050506003810160608301611bf2818561172c565b611bfd818386611b6d565b505050505050565b611c0f8282611b7d565b5050565b600081016000830180611c25816111f1565b9050611c318184611287565b505050600181016020830180611c46816111f1565b9050611c528184611287565b505050600281016040830180611c67816112c1565b9050611c73818461130d565b5050505050565b611c848282611c13565b5050565b7f4e487b7100000000000000000000000000000000000000000000000000000000600052603260045260246000fd5b7f4d616e756661637475726572206f6e6c79000000000000000000000000000000600082015250565b6000611ced60118361112e565b9150611cf882611cb7565b602082019050919050565b60006020820190508181036000830152611d1c81611ce0565b905091905056fea26469706673582212201d90d291e49b5103cd2e7d29ae5147227d508dd1c2f0201396cd75c3ab4fd29c64736f6c634300080b0033",
  "immutableReferences": {
    "63": [
      {
        "length": 32,
        "start": 450
      },
      {
        "length": 32,
        "start": 1782
      }
    ]
  },
  "source": "// SPDX-License-Identifier: MIT\npragma solidity >=0.7.0 <0.9.0;\n\ncontract Tracker {\n    address private immutable ADMIN;\n\n   // event Log(string msg, uint val);\n\n    // add modifiers auth only client only manufacturer only\n    modifier onlyAdmin(){\n        require(ADMIN == msg.sender, \"Admin only\");\n        _;\n    }\n    modifier onlyManufacturer(string memory id){\n        require(items[id].transitions[0].transitionerAddr == msg.sender, \"Manufacturer only\");\n        _;\n    }\n\n    struct Manufacturer{\n        bytes32 name;\n        bytes32 description; \n        uint256 createdAt;\n    }\n    struct Transitioner{\n        bytes32 name;\n        bytes32 description;   \n        uint256 createdAt;\n    }\n    struct Transition{\n        address transitionerAddr;\n        bool decision;\n        uint256 createdAt;\n    }\n    struct Item{\n        string name;\n        string description;\n        uint256 createdAt;\n        Transition[] transitions;\n    }\n    mapping(address => Manufacturer) private manufacturers;\n    mapping(address => Transitioner) private transitioners;\n    mapping(string => Item) private items;\n    constructor(){\n        ADMIN = msg.sender;\n        transitioners[msg.sender] = Transitioner(\"Tname\", \"Tdesc\", block.timestamp);\n        manufacturers[msg.sender] = Manufacturer(\"Mname\", \"Mdesc\", block.timestamp);\n        Item storage it = items[\"prod00\"];\n        it.name = \"Pname\";\n        it.description = \"Pdesc\";\n        it.createdAt = block.timestamp;\n        it.transitions.push(Transition(msg.sender, true, block.timestamp));\n\n       // emit Log(\"\", 00);//emit is transactional function\n    }\n\n    //calldata is contant\n\n    function getManufacturer(address id) external view returns(Manufacturer memory){\n        return manufacturers[id];\n    }\n    function getTransitioner(address id) external view returns(Transitioner memory){\n        return transitioners[id];\n    }\n    function getItem(string memory id) external view returns(Item memory){\n        return items[id];\n    }\n    function addManufacturer(address id, Manufacturer calldata manufacturer)external onlyAdmin{\n        manufacturers[id] = manufacturer;\n    }\n    function addTransitioner(address id, Transitioner calldata transitioner)external onlyAdmin{\n        transitioners[id] = transitioner;\n    }\n    function addItem(string memory id, Item calldata item)external {\n        items[id] = item;\n    }\n\n    function addTransition(string memory id, bool decision)external{\n        items[id].transitions.push(Transition(msg.sender, decision, block.timestamp));\n    }\n    //flag product\n    function flagProduct(string memory id) onlyManufacturer(id) external{\n        items[id].transitions.push(Transition(msg.sender, false, block.timestamp));\n    }\n}",
  "sourcePath": "C:\\Users\\DELL\\Desktop\\federator\\code\\contracts\\Tracker.sol",
  "compiler": {
    "name": "solc",
    "version": "0.8.11+commit.d7f03943.Emscripten.clang"
  },
  "schemaVersion": "3.4.4",
  "updatedAt": "2022-02-07T05:24:19.006Z",
  "networkType": "ethereum",
  "devdoc": {
    "kind": "dev",
    "methods": {},
    "version": 1
  },
  "userdoc": {
    "kind": "user",
    "methods": {},
    "version": 1
  }
}