{
    "contractName": "TrackerContract",
    "abi": [
        {
            "inputs": [],
            "stateMutability": "nonpayable",
            "type": "constructor"
        },
        {
            "inputs": [
                {
                    "internalType": "address",
                    "name": "id",
                    "type": "address"
                }
            ],
            "name": "getManufacturer",
            "outputs": [
                {
                    "components": [
                        {
                            "internalType": "string",
                            "name": "name",
                            "type": "string"
                        },
                        {
                            "internalType": "string",
                            "name": "description",
                            "type": "string"
                        },
                        {
                            "internalType": "uint256",
                            "name": "createdAt",
                            "type": "uint256"
                        }
                    ],
                    "internalType": "struct TrackerContract.Manufacturer",
                    "name": "",
                    "type": "tuple"
                }
            ],
            "stateMutability": "view",
            "type": "function",
            "constant": true
        },
        {
            "inputs": [
                {
                    "internalType": "address",
                    "name": "id",
                    "type": "address"
                }
            ],
            "name": "getTransitioner",
            "outputs": [
                {
                    "components": [
                        {
                            "internalType": "string",
                            "name": "name",
                            "type": "string"
                        },
                        {
                            "internalType": "string",
                            "name": "description",
                            "type": "string"
                        },
                        {
                            "internalType": "uint256",
                            "name": "createdAt",
                            "type": "uint256"
                        }
                    ],
                    "internalType": "struct TrackerContract.Transitioner",
                    "name": "",
                    "type": "tuple"
                }
            ],
            "stateMutability": "view",
            "type": "function",
            "constant": true
        },
        {
            "inputs": [
                {
                    "internalType": "string",
                    "name": "id",
                    "type": "string"
                }
            ],
            "name": "getItem",
            "outputs": [
                {
                    "components": [
                        {
                            "internalType": "string",
                            "name": "name",
                            "type": "string"
                        },
                        {
                            "internalType": "string",
                            "name": "description",
                            "type": "string"
                        },
                        {
                            "internalType": "uint256",
                            "name": "createdAt",
                            "type": "uint256"
                        },
                        {
                            "components": [
                                {
                                    "internalType": "address",
                                    "name": "transitionerAddr",
                                    "type": "address"
                                },
                                {
                                    "internalType": "bool",
                                    "name": "decision",
                                    "type": "bool"
                                },
                                {
                                    "internalType": "uint256",
                                    "name": "createdAt",
                                    "type": "uint256"
                                }
                            ],
                            "internalType": "struct TrackerContract.Transition[]",
                            "name": "transitions",
                            "type": "tuple[]"
                        }
                    ],
                    "internalType": "struct TrackerContract.Item",
                    "name": "",
                    "type": "tuple"
                }
            ],
            "stateMutability": "view",
            "type": "function",
            "constant": true
        },
        {
            "inputs": [
                {
                    "internalType": "address",
                    "name": "id",
                    "type": "address"
                },
                {
                    "internalType": "string",
                    "name": "name",
                    "type": "string"
                },
                {
                    "internalType": "string",
                    "name": "description",
                    "type": "string"
                }
            ],
            "name": "addManufacturer",
            "outputs": [],
            "stateMutability": "nonpayable",
            "type": "function"
        },
        {
            "inputs": [
                {
                    "internalType": "address",
                    "name": "id",
                    "type": "address"
                },
                {
                    "internalType": "string",
                    "name": "name",
                    "type": "string"
                },
                {
                    "internalType": "string",
                    "name": "description",
                    "type": "string"
                }
            ],
            "name": "addTransitioner",
            "outputs": [],
            "stateMutability": "nonpayable",
            "type": "function"
        },
        {
            "inputs": [
                {
                    "internalType": "string",
                    "name": "id",
                    "type": "string"
                },
                {
                    "internalType": "string",
                    "name": "name",
                    "type": "string"
                },
                {
                    "internalType": "string",
                    "name": "description",
                    "type": "string"
                }
            ],
            "name": "addItem",
            "outputs": [],
            "stateMutability": "nonpayable",
            "type": "function"
        },
        {
            "inputs": [
                {
                    "internalType": "string",
                    "name": "id",
                    "type": "string"
                },
                {
                    "internalType": "bool",
                    "name": "decision",
                    "type": "bool"
                }
            ],
            "name": "addTransition",
            "outputs": [],
            "stateMutability": "nonpayable",
            "type": "function"
        },
        {
            "inputs": [
                {
                    "internalType": "string",
                    "name": "id",
                    "type": "string"
                }
            ],
            "name": "flagProduct",
            "outputs": [],
            "stateMutability": "nonpayable",
            "type": "function"
        }
    ],
    "bytecode": "0x60a06040523480156200001157600080fd5b503373ffffffffffffffffffffffffffffffffffffffff1660808173ffffffffffffffffffffffffffffffffffffffff168152505060405180606001604052806040518060400160405280600581526020017f546e616d6500000000000000000000000000000000000000000000000000000081525081526020016040518060400160405280600581526020017f5464657363000000000000000000000000000000000000000000000000000000815250815260200142815250600160003373ffffffffffffffffffffffffffffffffffffffff1673ffffffffffffffffffffffffffffffffffffffff168152602001908152602001600020600082015181600001908051906020019062000128929190620004dd565b50602082015181600101908051906020019062000147929190620004dd565b506040820151816002015590505060405180606001604052806040518060400160405280600581526020017f4d6e616d6500000000000000000000000000000000000000000000000000000081525081526020016040518060400160405280600581526020017f4d646573630000000000000000000000000000000000000000000000000000008152508152602001428152506000803373ffffffffffffffffffffffffffffffffffffffff1673ffffffffffffffffffffffffffffffffffffffff168152602001908152602001600020600082015181600001908051906020019062000236929190620004dd565b50602082015181600101908051906020019062000255929190620004dd565b5060408201518160020155905050600060026040516200027590620005e8565b908152602001604051809103902090506040518060400160405280600c81526020017f70726f64756374206e616d650000000000000000000000000000000000000000815250816000019080519060200190620002d4929190620004dd565b506040518060400160405280601881526020017f70726f64756374206c6f6e67206465736372697074696f6e000000000000000081525081600101908051906020019062000324929190620004dd565b504281600201819055508060030160405180606001604052803373ffffffffffffffffffffffffffffffffffffffff16815260200160011515815260200142815250908060018154018082558091505060019003906000526020600020906002020160009091909190915060008201518160000160006101000a81548173ffffffffffffffffffffffffffffffffffffffff021916908373ffffffffffffffffffffffffffffffffffffffff16021790555060208201518160000160146101000a81548160ff0219169083151502179055506040820151816001015550508060030160405180606001604052803373ffffffffffffffffffffffffffffffffffffffff16815260200160011515815260200142815250908060018154018082558091505060019003906000526020600020906002020160009091909190915060008201518160000160006101000a81548173ffffffffffffffffffffffffffffffffffffffff021916908373ffffffffffffffffffffffffffffffffffffffff16021790555060208201518160000160146101000a81548160ff0219169083151502179055506040820151816001015550505062000664565b828054620004eb906200062e565b90600052602060002090601f0160209004810192826200050f57600085556200055b565b82601f106200052a57805160ff19168380011785556200055b565b828001600101855582156200055b579182015b828111156200055a5782518255916020019190600101906200053d565b5b5090506200056a91906200056e565b5090565b5b80821115620005895760008160009055506001016200056f565b5090565b600081905092915050565b7f70726f6475637430300000000000000000000000000000000000000000000000600082015250565b6000620005d06009836200058d565b9150620005dd8262000598565b600982019050919050565b6000620005f582620005c1565b9150819050919050565b7f4e487b7100000000000000000000000000000000000000000000000000000000600052602260045260246000fd5b600060028204905060018216806200064757607f821691505b602082108114156200065e576200065d620005ff565b5b50919050565b60805161143c6200067d6000396000505061143c6000f3fe608060405234801561001057600080fd5b50600436106100885760003560e01c806377d510ca1161005b57806377d510ca14610111578063ad8a846714610141578063b6010fcd1461015d578063d9f475331461018d57610088565b8063191bcef61461008d578063339ba349146100bd57806345c2c701146100d95780636a992c9f146100f5575b600080fd5b6100a760048036038101906100a29190610c9b565b6101a9565b6040516100b49190610dd1565b60405180910390f35b6100d760048036038101906100d29190610f28565b61032f565b005b6100f360048036038101906100ee9190610fcf565b610466565b005b61010f600480360381019061010a9190610fcf565b6104ea565b005b61012b60048036038101906101269190610c9b565b61056d565b60405161013891906110b1565b60405180910390f35b61015b6004803603810190610156919061110b565b6106f4565b005b61017760048036038101906101729190611167565b6107e8565b6040516101849190611330565b60405180910390f35b6101a760048036038101906101a29190611167565b610a28565b005b6101b1610b1c565b6000808373ffffffffffffffffffffffffffffffffffffffff1673ffffffffffffffffffffffffffffffffffffffff16815260200190815260200160002060405180606001604052908160008201805461020a90611381565b80601f016020809104026020016040519081016040528092919081815260200182805461023690611381565b80156102835780601f1061025857610100808354040283529160200191610283565b820191906000526020600020905b81548152906001019060200180831161026657829003601f168201915b5050505050815260200160018201805461029c90611381565b80601f01602080910402602001604051908101604052809291908181526020018280546102c890611381565b80156103155780601f106102ea57610100808354040283529160200191610315565b820191906000526020600020905b8154815290600101906020018083116102f857829003601f168201915b505050505081526020016002820154815250509050919050565b600060028460405161034191906113ef565b9081526020016040518091039020905082816000019080519060200190610369929190610b3d565b5081816001019080519060200190610382929190610b3d565b504281600201819055508060030160405180606001604052803373ffffffffffffffffffffffffffffffffffffffff16815260200160011515815260200142815250908060018154018082558091505060019003906000526020600020906002020160009091909190915060008201518160000160006101000a81548173ffffffffffffffffffffffffffffffffffffffff021916908373ffffffffffffffffffffffffffffffffffffffff16021790555060208201518160000160146101000a81548160ff02191690831515021790555060408201518160010155505050505050565b6000600160008573ffffffffffffffffffffffffffffffffffffffff1673ffffffffffffffffffffffffffffffffffffffff1681526020019081526020016000209050828160000190805190602001906104c1929190610b3d565b50818160010190805190602001906104da929190610b3d565b5042816002018190555050505050565b60008060008573ffffffffffffffffffffffffffffffffffffffff1673ffffffffffffffffffffffffffffffffffffffff168152602001908152602001600020905082816000019080519060200190610544929190610b3d565b508181600101908051906020019061055d929190610b3d565b5042816002018190555050505050565b610575610bc3565b600160008373ffffffffffffffffffffffffffffffffffffffff1673ffffffffffffffffffffffffffffffffffffffff1681526020019081526020016000206040518060600160405290816000820180546105cf90611381565b80601f01602080910402602001604051908101604052809291908181526020018280546105fb90611381565b80156106485780601f1061061d57610100808354040283529160200191610648565b820191906000526020600020905b81548152906001019060200180831161062b57829003601f168201915b5050505050815260200160018201805461066190611381565b80601f016020809104026020016040519081016040528092919081815260200182805461068d90611381565b80156106da5780601f106106af576101008083540402835291602001916106da565b820191906000526020600020905b8154815290600101906020018083116106bd57829003601f168201915b505050505081526020016002820154815250509050919050565b60028260405161070491906113ef565b908152602001604051809103902060030160405180606001604052803373ffffffffffffffffffffffffffffffffffffffff168152602001831515815260200142815250908060018154018082558091505060019003906000526020600020906002020160009091909190915060008201518160000160006101000a81548173ffffffffffffffffffffffffffffffffffffffff021916908373ffffffffffffffffffffffffffffffffffffffff16021790555060208201518160000160146101000a81548160ff0219169083151502179055506040820151816001015550505050565b6107f0610be4565b60028260405161080091906113ef565b908152602001604051809103902060405180608001604052908160008201805461082990611381565b80601f016020809104026020016040519081016040528092919081815260200182805461085590611381565b80156108a25780601f10610877576101008083540402835291602001916108a2565b820191906000526020600020905b81548152906001019060200180831161088557829003601f168201915b505050505081526020016001820180546108bb90611381565b80601f01602080910402602001604051908101604052809291908181526020018280546108e790611381565b80156109345780601f1061090957610100808354040283529160200191610934565b820191906000526020600020905b81548152906001019060200180831161091757829003601f168201915b505050505081526020016002820154815260200160038201805480602002602001604051908101604052809291908181526020016000905b82821015610a1957838290600052602060002090600202016040518060600160405290816000820160009054906101000a900473ffffffffffffffffffffffffffffffffffffffff1673ffffffffffffffffffffffffffffffffffffffff1673ffffffffffffffffffffffffffffffffffffffff1681526020016000820160149054906101000a900460ff161515151581526020016001820154815250508152602001906001019061096c565b50505050815250509050919050565b600281604051610a3891906113ef565b908152602001604051809103902060030160405180606001604052803373ffffffffffffffffffffffffffffffffffffffff16815260200160001515815260200142815250908060018154018082558091505060019003906000526020600020906002020160009091909190915060008201518160000160006101000a81548173ffffffffffffffffffffffffffffffffffffffff021916908373ffffffffffffffffffffffffffffffffffffffff16021790555060208201518160000160146101000a81548160ff02191690831515021790555060408201518160010155505050565b60405180606001604052806060815260200160608152602001600081525090565b828054610b4990611381565b90600052602060002090601f016020900481019282610b6b5760008555610bb2565b82601f10610b8457805160ff1916838001178555610bb2565b82800160010185558215610bb2579182015b82811115610bb1578251825591602001919060010190610b96565b5b509050610bbf9190610c0c565b5090565b60405180606001604052806060815260200160608152602001600081525090565b6040518060800160405280606081526020016060815260200160008152602001606081525090565b5b80821115610c25576000816000905550600101610c0d565b5090565b6000604051905090565b600080fd5b600080fd5b600073ffffffffffffffffffffffffffffffffffffffff82169050919050565b6000610c6882610c3d565b9050919050565b610c7881610c5d565b8114610c8357600080fd5b50565b600081359050610c9581610c6f565b92915050565b600060208284031215610cb157610cb0610c33565b5b6000610cbf84828501610c86565b91505092915050565b600081519050919050565b600082825260208201905092915050565b60005b83811015610d02578082015181840152602081019050610ce7565b83811115610d11576000848401525b50505050565b6000601f19601f8301169050919050565b6000610d3382610cc8565b610d3d8185610cd3565b9350610d4d818560208601610ce4565b610d5681610d17565b840191505092915050565b6000819050919050565b610d7481610d61565b82525050565b60006060830160008301518482036000860152610d978282610d28565b91505060208301518482036020860152610db18282610d28565b9150506040830151610dc66040860182610d6b565b508091505092915050565b60006020820190508181036000830152610deb8184610d7a565b905092915050565b600080fd5b600080fd5b7f4e487b7100000000000000000000000000000000000000000000000000000000600052604160045260246000fd5b610e3582610d17565b810181811067ffffffffffffffff82111715610e5457610e53610dfd565b5b80604052505050565b6000610e67610c29565b9050610e738282610e2c565b919050565b600067ffffffffffffffff821115610e9357610e92610dfd565b5b610e9c82610d17565b9050602081019050919050565b82818337600083830152505050565b6000610ecb610ec684610e78565b610e5d565b905082815260208101848484011115610ee757610ee6610df8565b5b610ef2848285610ea9565b509392505050565b600082601f830112610f0f57610f0e610df3565b5b8135610f1f848260208601610eb8565b91505092915050565b600080600060608486031215610f4157610f40610c33565b5b600084013567ffffffffffffffff811115610f5f57610f5e610c38565b5b610f6b86828701610efa565b935050602084013567ffffffffffffffff811115610f8c57610f8b610c38565b5b610f9886828701610efa565b925050604084013567ffffffffffffffff811115610fb957610fb8610c38565b5b610fc586828701610efa565b9150509250925092565b600080600060608486031215610fe857610fe7610c33565b5b6000610ff686828701610c86565b935050602084013567ffffffffffffffff81111561101757611016610c38565b5b61102386828701610efa565b925050604084013567ffffffffffffffff81111561104457611043610c38565b5b61105086828701610efa565b9150509250925092565b600060608301600083015184820360008601526110778282610d28565b915050602083015184820360208601526110918282610d28565b91505060408301516110a66040860182610d6b565b508091505092915050565b600060208201905081810360008301526110cb818461105a565b905092915050565b60008115159050919050565b6110e8816110d3565b81146110f357600080fd5b50565b600081359050611105816110df565b92915050565b6000806040838503121561112257611121610c33565b5b600083013567ffffffffffffffff8111156111405761113f610c38565b5b61114c85828601610efa565b925050602061115d858286016110f6565b9150509250929050565b60006020828403121561117d5761117c610c33565b5b600082013567ffffffffffffffff81111561119b5761119a610c38565b5b6111a784828501610efa565b91505092915050565b600081519050919050565b600082825260208201905092915050565b6000819050602082019050919050565b6111e581610c5d565b82525050565b6111f4816110d3565b82525050565b60608201600082015161121060008501826111dc565b50602082015161122360208501826111eb565b5060408201516112366040850182610d6b565b50505050565b600061124883836111fa565b60608301905092915050565b6000602082019050919050565b600061126c826111b0565b61127681856111bb565b9350611281836111cc565b8060005b838110156112b2578151611299888261123c565b97506112a483611254565b925050600181019050611285565b5085935050505092915050565b600060808301600083015184820360008601526112dc8282610d28565b915050602083015184820360208601526112f68282610d28565b915050604083015161130b6040860182610d6b565b50606083015184820360608601526113238282611261565b9150508091505092915050565b6000602082019050818103600083015261134a81846112bf565b905092915050565b7f4e487b7100000000000000000000000000000000000000000000000000000000600052602260045260246000fd5b6000600282049050600182168061139957607f821691505b602082108114156113ad576113ac611352565b5b50919050565b600081905092915050565b60006113c982610cc8565b6113d381856113b3565b93506113e3818560208601610ce4565b80840191505092915050565b60006113fb82846113be565b91508190509291505056fea26469706673582212200afccb06e4f699973949cc2e756938e09aadd829abec82bb21991dc32a10428864736f6c634300080b0033",
    "immutableReferences": {},
    "source": "// SPDX-License-Identifier: GPL-3.0\npragma solidity >=0.7.0 <0.9.0;\n\n\ncontract TrackerContract {\n    address private immutable ADMIN;\n\n    // add modifiers auth only client only manufacturer only\n    modifier onlyAdmin(){\n        require(ADMIN == msg.sender, \"Admin only\");\n        _;\n    }\n    modifier onlyManufacturer(){\n        require( bytes(manufacturers[msg.sender].name).length != 0  , \"Manufacturer only\");\n        _;\n    }\n\n    struct Manufacturer{\n        string name;\n        string description; \n        uint256 createdAt;\n    }\n    struct Transitioner{\n        string name;\n        string description;   \n        uint256 createdAt;\n    }\n    struct Transition{\n        address transitionerAddr;\n        bool decision;\n        uint256 createdAt;\n    }\n    struct Item{\n        string name;\n        string description;\n        uint256 createdAt;\n        Transition[] transitions;\n    }\n    mapping(address => Manufacturer) private manufacturers;\n    mapping(address => Transitioner) private transitioners;\n    mapping(string => Item) private items;\n    constructor(){\n        ADMIN = msg.sender;\n        transitioners[msg.sender] = Transitioner(\"Tname\", \"Tdesc\", block.timestamp);\n        manufacturers[msg.sender] = Manufacturer(\"Mname\", \"Mdesc\", block.timestamp);\n        Item storage it = items[\"product00\"];\n        it.name = \"product name\";\n        it.description = \"product long description\";\n        it.createdAt = block.timestamp;\n        it.transitions.push(Transition(msg.sender, true, block.timestamp));\n        it.transitions.push(Transition(msg.sender, true, block.timestamp));\n    }\n    //calldata is constant\n\n    function getManufacturer(address id) external view returns(Manufacturer memory){\n        return manufacturers[id];\n    }\n    function getTransitioner(address id) external view returns(Transitioner memory){\n        return transitioners[id];\n    }\n    function getItem(string memory id) external view returns(Item memory){\n        return items[id];\n    }\n    function addManufacturer(address id, string memory name, string memory description)external {\n        Manufacturer storage man = manufacturers[id];\n        man.name = name;\n        man.description = description;\n        man.createdAt = block.timestamp;\n    }\n    function addTransitioner(address id, string memory name, string memory description)external {\n        Transitioner storage tr = transitioners[id];\n        tr.name = name;\n        tr.description = description;\n        tr.createdAt = block.timestamp;\n    }\n    function addItem(string memory id, string memory name, string memory description)external {\n        Item storage it = items[id];\n        it.name = name;\n        it.description = description;\n        it.createdAt = block.timestamp;\n        it.transitions.push(Transition(msg.sender, true, block.timestamp));\n    \n    }\n    function addTransition(string memory id, bool decision)external{\n        items[id].transitions.push(Transition(msg.sender, decision, block.timestamp));\n    }\n    //flag product\n    function flagProduct(string memory id)  external{\n        items[id].transitions.push(Transition(msg.sender, false, block.timestamp));\n    }\n}",
    "sourcePath": "C:\\Users\\DELL\\Desktop\\federator\\code\\contracts\\TrackerContract.sol",
    "compiler": {
        "name": "solc",
        "version": "0.8.11+commit.d7f03943.Emscripten.clang"
    },
    "schemaVersion": "3.4.4",
    "updatedAt": "2022-02-10T03:26:17.250Z",
    "networkType": "ethereum",
    "devdoc": {
        "kind": "dev",
        "methods": {},
        "version": 1
    },
    "userdoc": {
        "kind": "user",
        "methods": {},
        "version": 1
    }
}