{
  "contractName": "TrackerContract",
  "abi": [
    {
      "inputs": [],
      "stateMutability": "nonpayable",
      "type": "constructor"
    },
    {
      "inputs": [
        {
          "internalType": "address",
          "name": "id",
          "type": "address"
        }
      ],
      "name": "getManufacturer",
      "outputs": [
        {
          "components": [
            {
              "internalType": "string",
              "name": "name",
              "type": "string"
            },
            {
              "internalType": "string",
              "name": "description",
              "type": "string"
            },
            {
              "internalType": "uint256",
              "name": "createdAt",
              "type": "uint256"
            }
          ],
          "internalType": "struct TrackerContract.Manufacturer",
          "name": "",
          "type": "tuple"
        }
      ],
      "stateMutability": "view",
      "type": "function",
      "constant": true
    },
    {
      "inputs": [
        {
          "internalType": "address",
          "name": "id",
          "type": "address"
        }
      ],
      "name": "getTransitioner",
      "outputs": [
        {
          "components": [
            {
              "internalType": "string",
              "name": "name",
              "type": "string"
            },
            {
              "internalType": "string",
              "name": "description",
              "type": "string"
            },
            {
              "internalType": "uint256",
              "name": "createdAt",
              "type": "uint256"
            }
          ],
          "internalType": "struct TrackerContract.Transitioner",
          "name": "",
          "type": "tuple"
        }
      ],
      "stateMutability": "view",
      "type": "function",
      "constant": true
    },
    {
      "inputs": [
        {
          "internalType": "string",
          "name": "id",
          "type": "string"
        }
      ],
      "name": "getItem",
      "outputs": [
        {
          "components": [
            {
              "internalType": "string",
              "name": "name",
              "type": "string"
            },
            {
              "internalType": "string",
              "name": "description",
              "type": "string"
            },
            {
              "internalType": "uint256",
              "name": "createdAt",
              "type": "uint256"
            },
            {
              "components": [
                {
                  "internalType": "address",
                  "name": "transitionerAddr",
                  "type": "address"
                },
                {
                  "internalType": "bool",
                  "name": "decision",
                  "type": "bool"
                },
                {
                  "internalType": "uint256",
                  "name": "createdAt",
                  "type": "uint256"
                }
              ],
              "internalType": "struct TrackerContract.Transition[]",
              "name": "transitions",
              "type": "tuple[]"
            }
          ],
          "internalType": "struct TrackerContract.Item",
          "name": "",
          "type": "tuple"
        }
      ],
      "stateMutability": "view",
      "type": "function",
      "constant": true
    },
    {
      "inputs": [
        {
          "internalType": "address",
          "name": "id",
          "type": "address"
        },
        {
          "components": [
            {
              "internalType": "string",
              "name": "name",
              "type": "string"
            },
            {
              "internalType": "string",
              "name": "description",
              "type": "string"
            },
            {
              "internalType": "uint256",
              "name": "createdAt",
              "type": "uint256"
            }
          ],
          "internalType": "struct TrackerContract.Manufacturer",
          "name": "manufacturer",
          "type": "tuple"
        }
      ],
      "name": "addManufacturer",
      "outputs": [],
      "stateMutability": "nonpayable",
      "type": "function"
    },
    {
      "inputs": [
        {
          "internalType": "address",
          "name": "id",
          "type": "address"
        },
        {
          "components": [
            {
              "internalType": "string",
              "name": "name",
              "type": "string"
            },
            {
              "internalType": "string",
              "name": "description",
              "type": "string"
            },
            {
              "internalType": "uint256",
              "name": "createdAt",
              "type": "uint256"
            }
          ],
          "internalType": "struct TrackerContract.Transitioner",
          "name": "transitioner",
          "type": "tuple"
        }
      ],
      "name": "addTransitioner",
      "outputs": [],
      "stateMutability": "nonpayable",
      "type": "function"
    },
    {
      "inputs": [
        {
          "internalType": "string",
          "name": "id",
          "type": "string"
        },
        {
          "components": [
            {
              "internalType": "string",
              "name": "name",
              "type": "string"
            },
            {
              "internalType": "string",
              "name": "description",
              "type": "string"
            },
            {
              "internalType": "uint256",
              "name": "createdAt",
              "type": "uint256"
            },
            {
              "components": [
                {
                  "internalType": "address",
                  "name": "transitionerAddr",
                  "type": "address"
                },
                {
                  "internalType": "bool",
                  "name": "decision",
                  "type": "bool"
                },
                {
                  "internalType": "uint256",
                  "name": "createdAt",
                  "type": "uint256"
                }
              ],
              "internalType": "struct TrackerContract.Transition[]",
              "name": "transitions",
              "type": "tuple[]"
            }
          ],
          "internalType": "struct TrackerContract.Item",
          "name": "item",
          "type": "tuple"
        }
      ],
      "name": "addItem",
      "outputs": [],
      "stateMutability": "nonpayable",
      "type": "function"
    },
    {
      "inputs": [
        {
          "internalType": "string",
          "name": "id",
          "type": "string"
        },
        {
          "internalType": "bool",
          "name": "decision",
          "type": "bool"
        }
      ],
      "name": "addTransition",
      "outputs": [],
      "stateMutability": "nonpayable",
      "type": "function"
    },
    {
      "inputs": [
        {
          "internalType": "string",
          "name": "id",
          "type": "string"
        }
      ],
      "name": "flagProduct",
      "outputs": [],
      "stateMutability": "nonpayable",
      "type": "function"
    }
  ],
  "bytecode": "0x60a06040523480156200001157600080fd5b503373ffffffffffffffffffffffffffffffffffffffff1660808173ffffffffffffffffffffffffffffffffffffffff168152505060405180606001604052806040518060400160405280600581526020017f546e616d6500000000000000000000000000000000000000000000000000000081525081526020016040518060400160405280600581526020017f5464657363000000000000000000000000000000000000000000000000000000815250815260200142815250600160003373ffffffffffffffffffffffffffffffffffffffff1673ffffffffffffffffffffffffffffffffffffffff16815260200190815260200160002060008201518160000190805190602001906200012892919062000409565b5060208201518160010190805190602001906200014792919062000409565b506040820151816002015590505060405180606001604052806040518060400160405280600581526020017f4d6e616d6500000000000000000000000000000000000000000000000000000081525081526020016040518060400160405280600581526020017f4d646573630000000000000000000000000000000000000000000000000000008152508152602001428152506000803373ffffffffffffffffffffffffffffffffffffffff1673ffffffffffffffffffffffffffffffffffffffff16815260200190815260200160002060008201518160000190805190602001906200023692919062000409565b5060208201518160010190805190602001906200025592919062000409565b506040820151816002015590505060006002604051620002759062000514565b908152602001604051809103902090506040518060400160405280600c81526020017f70726f64756374206e616d650000000000000000000000000000000000000000815250816000019080519060200190620002d492919062000409565b506040518060400160405280601381526020017f70726f64756374206465736372697074696f6e000000000000000000000000008152508160010190805190602001906200032492919062000409565b504281600201819055508060030160405180606001604052803373ffffffffffffffffffffffffffffffffffffffff16815260200160011515815260200142815250908060018154018082558091505060019003906000526020600020906002020160009091909190915060008201518160000160006101000a81548173ffffffffffffffffffffffffffffffffffffffff021916908373ffffffffffffffffffffffffffffffffffffffff16021790555060208201518160000160146101000a81548160ff0219169083151502179055506040820151816001015550505062000590565b82805462000417906200055a565b90600052602060002090601f0160209004810192826200043b576000855562000487565b82601f106200045657805160ff191683800117855562000487565b8280016001018555821562000487579182015b828111156200048657825182559160200191906001019062000469565b5b5090506200049691906200049a565b5090565b5b80821115620004b55760008160009055506001016200049b565b5090565b600081905092915050565b7f70726f6475637430300000000000000000000000000000000000000000000000600082015250565b6000620004fc600983620004b9565b91506200050982620004c4565b600982019050919050565b60006200052182620004ed565b9150819050919050565b7f4e487b7100000000000000000000000000000000000000000000000000000000600052602260045260246000fd5b600060028204905060018216806200057357607f821691505b602082108114156200058a57620005896200052b565b5b50919050565b608051611f61620005b36000396000818161059201526109a60152611f616000f3fe608060405234801561001057600080fd5b50600436106100885760003560e01c8063ad8a84671161005b578063ad8a846714610125578063b6010fcd14610141578063d01bae5814610171578063d9f475331461018d57610088565b8063191bcef61461008d5780631cffcaf8146100bd57806377d510ca146100d957806381504d0614610109575b600080fd5b6100a760048036038101906100a29190610ccf565b6101a9565b6040516100b49190610e05565b60405180910390f35b6100d760048036038101906100d29190610f80565b61032f565b005b6100f360048036038101906100ee9190610ccf565b6103f2565b604051610100919061104f565b60405180910390f35b610123600480360381019061011e9190611090565b610579565b005b61013f600480360381019061013a9190611124565b610659565b005b61015b60048036038101906101569190611180565b61074d565b6040516101689190611349565b60405180910390f35b61018b6004803603810190610186919061138a565b61098d565b005b6101a760048036038101906101a29190611180565b610a6e565b005b6101b1610bf3565b6000808373ffffffffffffffffffffffffffffffffffffffff1673ffffffffffffffffffffffffffffffffffffffff16815260200190815260200160002060405180606001604052908160008201805461020a90611415565b80601f016020809104026020016040519081016040528092919081815260200182805461023690611415565b80156102835780601f1061025857610100808354040283529160200191610283565b820191906000526020600020905b81548152906001019060200180831161026657829003601f168201915b5050505050815260200160018201805461029c90611415565b80601f01602080910402602001604051908101604052809291908181526020018280546102c890611415565b80156103155780601f106102ea57610100808354040283529160200191610315565b820191906000526020600020905b8154815290600101906020018083116102f857829003601f168201915b505050505081526020016002820154815250509050919050565b60008060003373ffffffffffffffffffffffffffffffffffffffff1673ffffffffffffffffffffffffffffffffffffffff168152602001908152602001600020600001805461037d90611415565b905014156103c0576040517f08c379a00000000000000000000000000000000000000000000000000000000081526004016103b7906114a4565b60405180910390fd5b806002836040516103d19190611500565b908152602001604051809103902081816103eb9190611dc7565b9050505050565b6103fa610c14565b600160008373ffffffffffffffffffffffffffffffffffffffff1673ffffffffffffffffffffffffffffffffffffffff16815260200190815260200160002060405180606001604052908160008201805461045490611415565b80601f016020809104026020016040519081016040528092919081815260200182805461048090611415565b80156104cd5780601f106104a2576101008083540402835291602001916104cd565b820191906000526020600020905b8154815290600101906020018083116104b057829003601f168201915b505050505081526020016001820180546104e690611415565b80601f016020809104026020016040519081016040528092919081815260200182805461051290611415565b801561055f5780601f106105345761010080835404028352916020019161055f565b820191906000526020600020905b81548152906001019060200180831161054257829003601f168201915b505050505081526020016002820154815250509050919050565b3373ffffffffffffffffffffffffffffffffffffffff167f000000000000000000000000000000000000000000000000000000000000000073ffffffffffffffffffffffffffffffffffffffff1614610607576040517f08c379a00000000000000000000000000000000000000000000000000000000081526004016105fe90611e21565b60405180910390fd5b806000808473ffffffffffffffffffffffffffffffffffffffff1673ffffffffffffffffffffffffffffffffffffffff16815260200190815260200160002081816106529190611ea8565b9050505050565b6002826040516106699190611500565b908152602001604051809103902060030160405180606001604052803373ffffffffffffffffffffffffffffffffffffffff168152602001831515815260200142815250908060018154018082558091505060019003906000526020600020906002020160009091909190915060008201518160000160006101000a81548173ffffffffffffffffffffffffffffffffffffffff021916908373ffffffffffffffffffffffffffffffffffffffff16021790555060208201518160000160146101000a81548160ff0219169083151502179055506040820151816001015550505050565b610755610c35565b6002826040516107659190611500565b908152602001604051809103902060405180608001604052908160008201805461078e90611415565b80601f01602080910402602001604051908101604052809291908181526020018280546107ba90611415565b80156108075780601f106107dc57610100808354040283529160200191610807565b820191906000526020600020905b8154815290600101906020018083116107ea57829003601f168201915b5050505050815260200160018201805461082090611415565b80601f016020809104026020016040519081016040528092919081815260200182805461084c90611415565b80156108995780601f1061086e57610100808354040283529160200191610899565b820191906000526020600020905b81548152906001019060200180831161087c57829003601f168201915b505050505081526020016002820154815260200160038201805480602002602001604051908101604052809291908181526020016000905b8282101561097e57838290600052602060002090600202016040518060600160405290816000820160009054906101000a900473ffffffffffffffffffffffffffffffffffffffff1673ffffffffffffffffffffffffffffffffffffffff1673ffffffffffffffffffffffffffffffffffffffff1681526020016000820160149054906101000a900460ff16151515158152602001600182015481525050815260200190600101906108d1565b50505050815250509050919050565b3373ffffffffffffffffffffffffffffffffffffffff167f000000000000000000000000000000000000000000000000000000000000000073ffffffffffffffffffffffffffffffffffffffff1614610a1b576040517f08c379a0000000000000000000000000000000000000000000000000000000008152600401610a1290611e21565b60405180910390fd5b80600160008473ffffffffffffffffffffffffffffffffffffffff1673ffffffffffffffffffffffffffffffffffffffff1681526020019081526020016000208181610a679190611f1d565b9050505050565b60008060003373ffffffffffffffffffffffffffffffffffffffff1673ffffffffffffffffffffffffffffffffffffffff1681526020019081526020016000206000018054610abc90611415565b90501415610aff576040517f08c379a0000000000000000000000000000000000000000000000000000000008152600401610af6906114a4565b60405180910390fd5b600281604051610b0f9190611500565b908152602001604051809103902060030160405180606001604052803373ffffffffffffffffffffffffffffffffffffffff16815260200160001515815260200142815250908060018154018082558091505060019003906000526020600020906002020160009091909190915060008201518160000160006101000a81548173ffffffffffffffffffffffffffffffffffffffff021916908373ffffffffffffffffffffffffffffffffffffffff16021790555060208201518160000160146101000a81548160ff02191690831515021790555060408201518160010155505050565b60405180606001604052806060815260200160608152602001600081525090565b60405180606001604052806060815260200160608152602001600081525090565b6040518060800160405280606081526020016060815260200160008152602001606081525090565b6000604051905090565b600080fd5b600080fd5b600073ffffffffffffffffffffffffffffffffffffffff82169050919050565b6000610c9c82610c71565b9050919050565b610cac81610c91565b8114610cb757600080fd5b50565b600081359050610cc981610ca3565b92915050565b600060208284031215610ce557610ce4610c67565b5b6000610cf384828501610cba565b91505092915050565b600081519050919050565b600082825260208201905092915050565b60005b83811015610d36578082015181840152602081019050610d1b565b83811115610d45576000848401525b50505050565b6000601f19601f8301169050919050565b6000610d6782610cfc565b610d718185610d07565b9350610d81818560208601610d18565b610d8a81610d4b565b840191505092915050565b6000819050919050565b610da881610d95565b82525050565b60006060830160008301518482036000860152610dcb8282610d5c565b91505060208301518482036020860152610de58282610d5c565b9150506040830151610dfa6040860182610d9f565b508091505092915050565b60006020820190508181036000830152610e1f8184610dae565b905092915050565b600080fd5b600080fd5b7f4e487b7100000000000000000000000000000000000000000000000000000000600052604160045260246000fd5b610e6982610d4b565b810181811067ffffffffffffffff82111715610e8857610e87610e31565b5b80604052505050565b6000610e9b610c5d565b9050610ea78282610e60565b919050565b600067ffffffffffffffff821115610ec757610ec6610e31565b5b610ed082610d4b565b9050602081019050919050565b82818337600083830152505050565b6000610eff610efa84610eac565b610e91565b905082815260208101848484011115610f1b57610f1a610e2c565b5b610f26848285610edd565b509392505050565b600082601f830112610f4357610f42610e27565b5b8135610f53848260208601610eec565b91505092915050565b600080fd5b600060808284031215610f7757610f76610f5c565b5b81905092915050565b60008060408385031215610f9757610f96610c67565b5b600083013567ffffffffffffffff811115610fb557610fb4610c6c565b5b610fc185828601610f2e565b925050602083013567ffffffffffffffff811115610fe257610fe1610c6c565b5b610fee85828601610f61565b9150509250929050565b600060608301600083015184820360008601526110158282610d5c565b9150506020830151848203602086015261102f8282610d5c565b91505060408301516110446040860182610d9f565b508091505092915050565b600060208201905081810360008301526110698184610ff8565b905092915050565b60006060828403121561108757611086610f5c565b5b81905092915050565b600080604083850312156110a7576110a6610c67565b5b60006110b585828601610cba565b925050602083013567ffffffffffffffff8111156110d6576110d5610c6c565b5b6110e285828601611071565b9150509250929050565b60008115159050919050565b611101816110ec565b811461110c57600080fd5b50565b60008135905061111e816110f8565b92915050565b6000806040838503121561113b5761113a610c67565b5b600083013567ffffffffffffffff81111561115957611158610c6c565b5b61116585828601610f2e565b92505060206111768582860161110f565b9150509250929050565b60006020828403121561119657611195610c67565b5b600082013567ffffffffffffffff8111156111b4576111b3610c6c565b5b6111c084828501610f2e565b91505092915050565b600081519050919050565b600082825260208201905092915050565b6000819050602082019050919050565b6111fe81610c91565b82525050565b61120d816110ec565b82525050565b60608201600082015161122960008501826111f5565b50602082015161123c6020850182611204565b50604082015161124f6040850182610d9f565b50505050565b60006112618383611213565b60608301905092915050565b6000602082019050919050565b6000611285826111c9565b61128f81856111d4565b935061129a836111e5565b8060005b838110156112cb5781516112b28882611255565b97506112bd8361126d565b92505060018101905061129e565b5085935050505092915050565b600060808301600083015184820360008601526112f58282610d5c565b9150506020830151848203602086015261130f8282610d5c565b91505060408301516113246040860182610d9f565b506060830151848203606086015261133c828261127a565b9150508091505092915050565b6000602082019050818103600083015261136381846112d8565b905092915050565b60006060828403121561138157611380610f5c565b5b81905092915050565b600080604083850312156113a1576113a0610c67565b5b60006113af85828601610cba565b925050602083013567ffffffffffffffff8111156113d0576113cf610c6c565b5b6113dc8582860161136b565b9150509250929050565b7f4e487b7100000000000000000000000000000000000000000000000000000000600052602260045260246000fd5b6000600282049050600182168061142d57607f821691505b60208210811415611441576114406113e6565b5b50919050565b600082825260208201905092915050565b7f4d616e756661637475726572206f6e6c79000000000000000000000000000000600082015250565b600061148e601183611447565b915061149982611458565b602082019050919050565b600060208201905081810360008301526114bd81611481565b9050919050565b600081905092915050565b60006114da82610cfc565b6114e481856114c4565b93506114f4818560208601610d18565b80840191505092915050565b600061150c82846114cf565b915081905092915050565b7f4e487b7100000000000000000000000000000000000000000000000000000000600052600060045260246000fd5b600080fd5b600080fd5b600080fd5b6000808335600160200384360303811261157257611571611546565b5b80840192508235915067ffffffffffffffff8211156115945761159361154b565b5b6020830192506001820236038313156115b0576115af611550565b5b509250929050565b600082905092915050565b60008190508160005260206000209050919050565b60006020601f8301049050919050565b600082821b905092915050565b6000600883026116257fffffffffffffffffffffffffffffffffffffffffffffffffffffffffffffffff826115e8565b61162f86836115e8565b95508019841693508086168417925050509392505050565b6000819050919050565b600061166c61166761166284610d95565b611647565b610d95565b9050919050565b6000819050919050565b61168683611651565b61169a61169282611673565b8484546115f5565b825550505050565b600090565b6116af6116a2565b6116ba81848461167d565b505050565b5b818110156116de576116d36000826116a7565b6001810190506116c0565b5050565b601f821115611723576116f4816115c3565b6116fd846115d8565b8101602085101561170c578190505b611720611718856115d8565b8301826116bf565b50505b505050565b600082821c905092915050565b600061174660001984600802611728565b1980831691505092915050565b600061175f8383611735565b9150826002028217905092915050565b61177983836115b8565b67ffffffffffffffff81111561179257611791610e31565b5b61179c8254611415565b6117a78282856116e2565b6000601f8311600181146117d657600084156117c4578287013590505b6117ce8582611753565b865550611836565b601f1984166117e4866115c3565b60005b8281101561180c578489013582556001820191506020850194506020810190506117e7565b868310156118295784890135611825601f891682611735565b8355505b6001600288020188555050505b50505050505050565b61184a83838361176f565b505050565b61185881610d95565b811461186357600080fd5b50565b600081356118738161184f565b80915050919050565b60008160001b9050919050565b60007fffffffffffffffffffffffffffffffffffffffffffffffffffffffffffffffff6118b58461187c565b9350801983169250808416831791505092915050565b6118d482611651565b6118e76118e082611673565b8354611889565b8255505050565b6000808335600160200384360303811261190b5761190a611546565b5b80840192508235915067ffffffffffffffff82111561192d5761192c61154b565b5b60208301925060608202360383131561194957611948611550565b5b509250929050565b6000819050919050565b600081549050919050565b7f4e487b7100000000000000000000000000000000000000000000000000000000600052601160045260246000fd5b60006119a082610d95565b91506119ab83610d95565b9250817fffffffffffffffffffffffffffffffffffffffffffffffffffffffffffffffff04831182151516156119e4576119e3611966565b5b828202905092915050565b60008190506119ff826002611995565b9050919050565b60008190508160005260206000209050919050565b600080820155611a2f6000600183016116a7565b50565b60008214611a4357611a42611517565b5b611a4c81611a1b565b5050565b5b81811015611a6f57611a64600082611a32565b600281019050611a51565b5050565b81831015611aac57611a84826119ef565b611a8d846119ef565b611a9683611a06565b818101838201611aa68183611a50565b50505050505b505050565b68010000000000000000821115611acb57611aca610e31565b5b611ad48161195b565b828255611ae2838284611a73565b505050565b600082905092915050565b60008135611aff81610ca3565b80915050919050565b600073ffffffffffffffffffffffffffffffffffffffff611b288461187c565b9350801983169250808416831791505092915050565b6000611b59611b54611b4f84610c71565b611647565b610c71565b9050919050565b6000611b6b82611b3e565b9050919050565b6000611b7d82611b60565b9050919050565b6000819050919050565b611b9782611b72565b611baa611ba382611b84565b8354611b08565b8255505050565b60008135611bbe816110f8565b80915050919050565b60008160a01b9050919050565b600074ff0000000000000000000000000000000000000000611bf584611bc7565b9350801983169250808416831791505092915050565b6000611c16826110ec565b9050919050565b6000819050919050565b611c3082611c0b565b611c43611c3c82611c1d565b8354611bd4565b8255505050565b600081016000830180611c5c81611af2565b9050611c688184611b8e565b505050600081016020830180611c7d81611bb1565b9050611c898184611c27565b505050600181016040830180611c9e81611866565b9050611caa81846118cb565b5050505050565b8115611cc057611cbf611517565b5b611cca8382611c4a565b505050565b611cd98383611ae7565b611ce38183611ab1565b611cec83611951565b611cf583611a06565b6000805b84811015611d255783611d0d818486611cb1565b60608501945060028401935050600181019050611cf9565b5050505050505050565b611d3a838383611ccf565b505050565b6000810160008301611d518185611555565b611d5c81838661183f565b505050506001810160208301611d728185611555565b611d7d81838661183f565b50505050600281016040830180611d9381611866565b9050611d9f81846118cb565b5050506003810160608301611db481856118ee565b611dbf818386611d2f565b505050505050565b611dd18282611d3f565b5050565b7f41646d696e206f6e6c7900000000000000000000000000000000000000000000600082015250565b6000611e0b600a83611447565b9150611e1682611dd5565b602082019050919050565b60006020820190508181036000830152611e3a81611dfe565b9050919050565b6000810160008301611e538185611555565b611e5e81838661183f565b505050506001810160208301611e748185611555565b611e7f81838661183f565b50505050600281016040830180611e9581611866565b9050611ea181846118cb565b5050505050565b611eb28282611e41565b5050565b6000810160008301611ec88185611555565b611ed381838661183f565b505050506001810160208301611ee98185611555565b611ef481838661183f565b50505050600281016040830180611f0a81611866565b9050611f1681846118cb565b5050505050565b611f278282611eb6565b505056fea2646970667358221220c2d091c933b155e6026726dd4ae3ca948dcd5c5ec44193e43ae4c3c5adf8878364736f6c634300080b0033",
  "immutableReferences": {
    "797": [
      {
        "length": 32,
        "start": 1426
      },
      {
        "length": 32,
        "start": 2470
      }
    ]
  },
  "source": "// SPDX-License-Identifier: GPL-3.0\npragma solidity >=0.7.0 <0.9.0;\n\n\ncontract TrackerContract {\n    address private immutable ADMIN;\n\n    // add modifiers auth only client only manufacturer only\n    modifier onlyAdmin(){\n        require(ADMIN == msg.sender, \"Admin only\");\n        _;\n    }\n    modifier onlyManufacturer(){\n        require( bytes(manufacturers[msg.sender].name).length != 0  , \"Manufacturer only\");\n        _;\n    }\n\n    struct Manufacturer{\n        string name;\n        string description; \n        uint256 createdAt;\n    }\n    struct Transitioner{\n        string name;\n        string description;   \n        uint256 createdAt;\n    }\n    struct Transition{\n        address transitionerAddr;\n        bool decision;\n        uint256 createdAt;\n    }\n    struct Item{\n        string name;\n        string description;\n        uint256 createdAt;\n        Transition[] transitions;\n    }\n    mapping(address => Manufacturer) private manufacturers;\n    mapping(address => Transitioner) private transitioners;\n    mapping(string => Item) private items;\n    constructor(){\n        ADMIN = msg.sender;\n        transitioners[msg.sender] = Transitioner(\"Tname\", \"Tdesc\", block.timestamp);\n        manufacturers[msg.sender] = Manufacturer(\"Mname\", \"Mdesc\", block.timestamp);\n        Item storage it = items[\"product00\"];\n        it.name = \"product name\";\n        it.description = \"product description\";\n        it.createdAt = block.timestamp;\n        it.transitions.push(Transition(msg.sender, true, block.timestamp));\n\n    }\n    //calldata is constant\n\n    function getManufacturer(address id) external view returns(Manufacturer memory){\n        return manufacturers[id];\n    }\n    function getTransitioner(address id) external view returns(Transitioner memory){\n        return transitioners[id];\n    }\n    function getItem(string memory id) external view returns(Item memory){\n        return items[id];\n    }\n    function addManufacturer(address id, Manufacturer calldata manufacturer)external onlyAdmin{\n        manufacturers[id] = manufacturer;\n    }\n    function addTransitioner(address id, Transitioner calldata transitioner)external onlyAdmin{\n        transitioners[id] = transitioner;\n    }\n    function addItem(string memory id, Item calldata item)external onlyManufacturer {\n        items[id] = item;\n    }\n    function addTransition(string memory id, bool decision)external{\n        items[id].transitions.push(Transition(msg.sender, decision, block.timestamp));\n    }\n    //flag product\n    function flagProduct(string memory id) onlyManufacturer external{\n        items[id].transitions.push(Transition(msg.sender, false, block.timestamp));\n    }\n}",
  "sourcePath": "C:\\Users\\DELL\\Desktop\\federator\\code\\contracts\\TrackerContract.sol",
  "compiler": {
    "name": "solc",
    "version": "0.8.11+commit.d7f03943.Emscripten.clang"
  },
  "schemaVersion": "3.4.4",
  "updatedAt": "2022-02-09T04:46:07.477Z",
  "networkType": "ethereum",
  "devdoc": {
    "kind": "dev",
    "methods": {},
    "version": 1
  },
  "userdoc": {
    "kind": "user",
    "methods": {},
    "version": 1
  }
}