{
  "contractName": "TrackerContract",
  "abi": [
    {
      "inputs": [],
      "stateMutability": "nonpayable",
      "type": "constructor"
    },
    {
      "inputs": [
        {
          "internalType": "address",
          "name": "id",
          "type": "address"
        }
      ],
      "name": "getManufacturer",
      "outputs": [
        {
          "components": [
            {
              "internalType": "string",
              "name": "name",
              "type": "string"
            },
            {
              "internalType": "string",
              "name": "description",
              "type": "string"
            },
            {
              "internalType": "uint256",
              "name": "createdAt",
              "type": "uint256"
            }
          ],
          "internalType": "struct TrackerContract.Manufacturer",
          "name": "",
          "type": "tuple"
        }
      ],
      "stateMutability": "view",
      "type": "function",
      "constant": true
    },
    {
      "inputs": [
        {
          "internalType": "address",
          "name": "id",
          "type": "address"
        }
      ],
      "name": "getTransitioner",
      "outputs": [
        {
          "components": [
            {
              "internalType": "string",
              "name": "name",
              "type": "string"
            },
            {
              "internalType": "string",
              "name": "description",
              "type": "string"
            },
            {
              "internalType": "uint256",
              "name": "createdAt",
              "type": "uint256"
            }
          ],
          "internalType": "struct TrackerContract.Transitioner",
          "name": "",
          "type": "tuple"
        }
      ],
      "stateMutability": "view",
      "type": "function",
      "constant": true
    },
    {
      "inputs": [
        {
          "internalType": "string",
          "name": "id",
          "type": "string"
        }
      ],
      "name": "getItem",
      "outputs": [
        {
          "components": [
            {
              "internalType": "string",
              "name": "name",
              "type": "string"
            },
            {
              "internalType": "string",
              "name": "description",
              "type": "string"
            },
            {
              "internalType": "uint256",
              "name": "createdAt",
              "type": "uint256"
            },
            {
              "components": [
                {
                  "internalType": "address",
                  "name": "transitionerAddr",
                  "type": "address"
                },
                {
                  "internalType": "bool",
                  "name": "decision",
                  "type": "bool"
                },
                {
                  "internalType": "uint256",
                  "name": "createdAt",
                  "type": "uint256"
                }
              ],
              "internalType": "struct TrackerContract.Transition[]",
              "name": "transitions",
              "type": "tuple[]"
            }
          ],
          "internalType": "struct TrackerContract.Item",
          "name": "",
          "type": "tuple"
        }
      ],
      "stateMutability": "view",
      "type": "function",
      "constant": true
    },
    {
      "inputs": [
        {
          "internalType": "address",
          "name": "id",
          "type": "address"
        },
        {
          "components": [
            {
              "internalType": "string",
              "name": "name",
              "type": "string"
            },
            {
              "internalType": "string",
              "name": "description",
              "type": "string"
            },
            {
              "internalType": "uint256",
              "name": "createdAt",
              "type": "uint256"
            }
          ],
          "internalType": "struct TrackerContract.Manufacturer",
          "name": "manufacturer",
          "type": "tuple"
        }
      ],
      "name": "addManufacturer",
      "outputs": [],
      "stateMutability": "nonpayable",
      "type": "function"
    },
    {
      "inputs": [
        {
          "internalType": "address",
          "name": "id",
          "type": "address"
        },
        {
          "components": [
            {
              "internalType": "string",
              "name": "name",
              "type": "string"
            },
            {
              "internalType": "string",
              "name": "description",
              "type": "string"
            },
            {
              "internalType": "uint256",
              "name": "createdAt",
              "type": "uint256"
            }
          ],
          "internalType": "struct TrackerContract.Transitioner",
          "name": "transitioner",
          "type": "tuple"
        }
      ],
      "name": "addTransitioner",
      "outputs": [],
      "stateMutability": "nonpayable",
      "type": "function"
    },
    {
      "inputs": [
        {
          "internalType": "string",
          "name": "id",
          "type": "string"
        },
        {
          "internalType": "string",
          "name": "name",
          "type": "string"
        },
        {
          "internalType": "string",
          "name": "description",
          "type": "string"
        }
      ],
      "name": "addItem",
      "outputs": [],
      "stateMutability": "nonpayable",
      "type": "function"
    },
    {
      "inputs": [
        {
          "internalType": "string",
          "name": "id",
          "type": "string"
        },
        {
          "internalType": "bool",
          "name": "decision",
          "type": "bool"
        }
      ],
      "name": "addTransition",
      "outputs": [],
      "stateMutability": "nonpayable",
      "type": "function"
    },
    {
      "inputs": [
        {
          "internalType": "string",
          "name": "id",
          "type": "string"
        }
      ],
      "name": "flagProduct",
      "outputs": [],
      "stateMutability": "nonpayable",
      "type": "function"
    }
  ],
  "bytecode": "0x60a06040523480156200001157600080fd5b503373ffffffffffffffffffffffffffffffffffffffff1660808173ffffffffffffffffffffffffffffffffffffffff168152505060405180606001604052806040518060400160405280600581526020017f546e616d6500000000000000000000000000000000000000000000000000000081525081526020016040518060400160405280600581526020017f5464657363000000000000000000000000000000000000000000000000000000815250815260200142815250600160003373ffffffffffffffffffffffffffffffffffffffff1673ffffffffffffffffffffffffffffffffffffffff16815260200190815260200160002060008201518160000190805190602001906200012892919062000409565b5060208201518160010190805190602001906200014792919062000409565b506040820151816002015590505060405180606001604052806040518060400160405280600581526020017f4d6e616d6500000000000000000000000000000000000000000000000000000081525081526020016040518060400160405280600581526020017f4d646573630000000000000000000000000000000000000000000000000000008152508152602001428152506000803373ffffffffffffffffffffffffffffffffffffffff1673ffffffffffffffffffffffffffffffffffffffff16815260200190815260200160002060008201518160000190805190602001906200023692919062000409565b5060208201518160010190805190602001906200025592919062000409565b506040820151816002015590505060006002604051620002759062000514565b908152602001604051809103902090506040518060400160405280600c81526020017f70726f64756374206e616d650000000000000000000000000000000000000000815250816000019080519060200190620002d492919062000409565b506040518060400160405280601381526020017f70726f64756374206465736372697074696f6e000000000000000000000000008152508160010190805190602001906200032492919062000409565b504281600201819055508060030160405180606001604052803373ffffffffffffffffffffffffffffffffffffffff16815260200160011515815260200142815250908060018154018082558091505060019003906000526020600020906002020160009091909190915060008201518160000160006101000a81548173ffffffffffffffffffffffffffffffffffffffff021916908373ffffffffffffffffffffffffffffffffffffffff16021790555060208201518160000160146101000a81548160ff0219169083151502179055506040820151816001015550505062000590565b82805462000417906200055a565b90600052602060002090601f0160209004810192826200043b576000855562000487565b82601f106200045657805160ff191683800117855562000487565b8280016001018555821562000487579182015b828111156200048657825182559160200191906001019062000469565b5b5090506200049691906200049a565b5090565b5b80821115620004b55760008160009055506001016200049b565b5090565b600081905092915050565b7f70726f6475637430300000000000000000000000000000000000000000000000600082015250565b6000620004fc600983620004b9565b91506200050982620004c4565b600982019050919050565b60006200052182620004ed565b9150819050919050565b7f4e487b7100000000000000000000000000000000000000000000000000000000600052602260045260246000fd5b600060028204905060018216806200057357607f821691505b602082108114156200058a57620005896200052b565b5b50919050565b608051611b72620005b3600039600081816106060152610a1a0152611b726000f3fe608060405234801561001057600080fd5b50600436106100885760003560e01c8063ad8a84671161005b578063ad8a846714610125578063b6010fcd14610141578063d01bae5814610171578063d9f475331461018d57610088565b8063191bcef61461008d578063339ba349146100bd57806377d510ca146100d957806381504d0614610109575b600080fd5b6100a760048036038101906100a29190610de6565b6101a9565b6040516100b49190610f1c565b60405180910390f35b6100d760048036038101906100d29190611073565b61032f565b005b6100f360048036038101906100ee9190610de6565b610466565b6040516101009190611171565b60405180910390f35b610123600480360381019061011e91906111b7565b6105ed565b005b61013f600480360381019061013a919061124b565b6106cd565b005b61015b600480360381019061015691906112a7565b6107c1565b6040516101689190611470565b60405180910390f35b61018b600480360381019061018691906114b1565b610a01565b005b6101a760048036038101906101a291906112a7565b610ae2565b005b6101b1610c67565b6000808373ffffffffffffffffffffffffffffffffffffffff1673ffffffffffffffffffffffffffffffffffffffff16815260200190815260200160002060405180606001604052908160008201805461020a9061153c565b80601f01602080910402602001604051908101604052809291908181526020018280546102369061153c565b80156102835780601f1061025857610100808354040283529160200191610283565b820191906000526020600020905b81548152906001019060200180831161026657829003601f168201915b5050505050815260200160018201805461029c9061153c565b80601f01602080910402602001604051908101604052809291908181526020018280546102c89061153c565b80156103155780601f106102ea57610100808354040283529160200191610315565b820191906000526020600020905b8154815290600101906020018083116102f857829003601f168201915b505050505081526020016002820154815250509050919050565b600060028460405161034191906115aa565b9081526020016040518091039020905082816000019080519060200190610369929190610c88565b5081816001019080519060200190610382929190610c88565b504281600201819055508060030160405180606001604052803373ffffffffffffffffffffffffffffffffffffffff16815260200160011515815260200142815250908060018154018082558091505060019003906000526020600020906002020160009091909190915060008201518160000160006101000a81548173ffffffffffffffffffffffffffffffffffffffff021916908373ffffffffffffffffffffffffffffffffffffffff16021790555060208201518160000160146101000a81548160ff02191690831515021790555060408201518160010155505050505050565b61046e610d0e565b600160008373ffffffffffffffffffffffffffffffffffffffff1673ffffffffffffffffffffffffffffffffffffffff1681526020019081526020016000206040518060600160405290816000820180546104c89061153c565b80601f01602080910402602001604051908101604052809291908181526020018280546104f49061153c565b80156105415780601f1061051657610100808354040283529160200191610541565b820191906000526020600020905b81548152906001019060200180831161052457829003601f168201915b5050505050815260200160018201805461055a9061153c565b80601f01602080910402602001604051908101604052809291908181526020018280546105869061153c565b80156105d35780601f106105a8576101008083540402835291602001916105d3565b820191906000526020600020905b8154815290600101906020018083116105b657829003601f168201915b505050505081526020016002820154815250509050919050565b3373ffffffffffffffffffffffffffffffffffffffff167f000000000000000000000000000000000000000000000000000000000000000073ffffffffffffffffffffffffffffffffffffffff161461067b576040517f08c379a00000000000000000000000000000000000000000000000000000000081526004016106729061161e565b60405180910390fd5b806000808473ffffffffffffffffffffffffffffffffffffffff1673ffffffffffffffffffffffffffffffffffffffff16815260200190815260200160002081816106c69190611a4d565b9050505050565b6002826040516106dd91906115aa565b908152602001604051809103902060030160405180606001604052803373ffffffffffffffffffffffffffffffffffffffff168152602001831515815260200142815250908060018154018082558091505060019003906000526020600020906002020160009091909190915060008201518160000160006101000a81548173ffffffffffffffffffffffffffffffffffffffff021916908373ffffffffffffffffffffffffffffffffffffffff16021790555060208201518160000160146101000a81548160ff0219169083151502179055506040820151816001015550505050565b6107c9610d2f565b6002826040516107d991906115aa565b90815260200160405180910390206040518060800160405290816000820180546108029061153c565b80601f016020809104026020016040519081016040528092919081815260200182805461082e9061153c565b801561087b5780601f106108505761010080835404028352916020019161087b565b820191906000526020600020905b81548152906001019060200180831161085e57829003601f168201915b505050505081526020016001820180546108949061153c565b80601f01602080910402602001604051908101604052809291908181526020018280546108c09061153c565b801561090d5780601f106108e25761010080835404028352916020019161090d565b820191906000526020600020905b8154815290600101906020018083116108f057829003601f168201915b505050505081526020016002820154815260200160038201805480602002602001604051908101604052809291908181526020016000905b828210156109f257838290600052602060002090600202016040518060600160405290816000820160009054906101000a900473ffffffffffffffffffffffffffffffffffffffff1673ffffffffffffffffffffffffffffffffffffffff1673ffffffffffffffffffffffffffffffffffffffff1681526020016000820160149054906101000a900460ff1615151515815260200160018201548152505081526020019060010190610945565b50505050815250509050919050565b3373ffffffffffffffffffffffffffffffffffffffff167f000000000000000000000000000000000000000000000000000000000000000073ffffffffffffffffffffffffffffffffffffffff1614610a8f576040517f08c379a0000000000000000000000000000000000000000000000000000000008152600401610a869061161e565b60405180910390fd5b80600160008473ffffffffffffffffffffffffffffffffffffffff1673ffffffffffffffffffffffffffffffffffffffff1681526020019081526020016000208181610adb9190611ac2565b9050505050565b60008060003373ffffffffffffffffffffffffffffffffffffffff1673ffffffffffffffffffffffffffffffffffffffff1681526020019081526020016000206000018054610b309061153c565b90501415610b73576040517f08c379a0000000000000000000000000000000000000000000000000000000008152600401610b6a90611b1c565b60405180910390fd5b600281604051610b8391906115aa565b908152602001604051809103902060030160405180606001604052803373ffffffffffffffffffffffffffffffffffffffff16815260200160001515815260200142815250908060018154018082558091505060019003906000526020600020906002020160009091909190915060008201518160000160006101000a81548173ffffffffffffffffffffffffffffffffffffffff021916908373ffffffffffffffffffffffffffffffffffffffff16021790555060208201518160000160146101000a81548160ff02191690831515021790555060408201518160010155505050565b60405180606001604052806060815260200160608152602001600081525090565b828054610c949061153c565b90600052602060002090601f016020900481019282610cb65760008555610cfd565b82601f10610ccf57805160ff1916838001178555610cfd565b82800160010185558215610cfd579182015b82811115610cfc578251825591602001919060010190610ce1565b5b509050610d0a9190610d57565b5090565b60405180606001604052806060815260200160608152602001600081525090565b6040518060800160405280606081526020016060815260200160008152602001606081525090565b5b80821115610d70576000816000905550600101610d58565b5090565b6000604051905090565b600080fd5b600080fd5b600073ffffffffffffffffffffffffffffffffffffffff82169050919050565b6000610db382610d88565b9050919050565b610dc381610da8565b8114610dce57600080fd5b50565b600081359050610de081610dba565b92915050565b600060208284031215610dfc57610dfb610d7e565b5b6000610e0a84828501610dd1565b91505092915050565b600081519050919050565b600082825260208201905092915050565b60005b83811015610e4d578082015181840152602081019050610e32565b83811115610e5c576000848401525b50505050565b6000601f19601f8301169050919050565b6000610e7e82610e13565b610e888185610e1e565b9350610e98818560208601610e2f565b610ea181610e62565b840191505092915050565b6000819050919050565b610ebf81610eac565b82525050565b60006060830160008301518482036000860152610ee28282610e73565b91505060208301518482036020860152610efc8282610e73565b9150506040830151610f116040860182610eb6565b508091505092915050565b60006020820190508181036000830152610f368184610ec5565b905092915050565b600080fd5b600080fd5b7f4e487b7100000000000000000000000000000000000000000000000000000000600052604160045260246000fd5b610f8082610e62565b810181811067ffffffffffffffff82111715610f9f57610f9e610f48565b5b80604052505050565b6000610fb2610d74565b9050610fbe8282610f77565b919050565b600067ffffffffffffffff821115610fde57610fdd610f48565b5b610fe782610e62565b9050602081019050919050565b82818337600083830152505050565b600061101661101184610fc3565b610fa8565b90508281526020810184848401111561103257611031610f43565b5b61103d848285610ff4565b509392505050565b600082601f83011261105a57611059610f3e565b5b813561106a848260208601611003565b91505092915050565b60008060006060848603121561108c5761108b610d7e565b5b600084013567ffffffffffffffff8111156110aa576110a9610d83565b5b6110b686828701611045565b935050602084013567ffffffffffffffff8111156110d7576110d6610d83565b5b6110e386828701611045565b925050604084013567ffffffffffffffff81111561110457611103610d83565b5b61111086828701611045565b9150509250925092565b600060608301600083015184820360008601526111378282610e73565b915050602083015184820360208601526111518282610e73565b91505060408301516111666040860182610eb6565b508091505092915050565b6000602082019050818103600083015261118b818461111a565b905092915050565b600080fd5b6000606082840312156111ae576111ad611193565b5b81905092915050565b600080604083850312156111ce576111cd610d7e565b5b60006111dc85828601610dd1565b925050602083013567ffffffffffffffff8111156111fd576111fc610d83565b5b61120985828601611198565b9150509250929050565b60008115159050919050565b61122881611213565b811461123357600080fd5b50565b6000813590506112458161121f565b92915050565b6000806040838503121561126257611261610d7e565b5b600083013567ffffffffffffffff8111156112805761127f610d83565b5b61128c85828601611045565b925050602061129d85828601611236565b9150509250929050565b6000602082840312156112bd576112bc610d7e565b5b600082013567ffffffffffffffff8111156112db576112da610d83565b5b6112e784828501611045565b91505092915050565b600081519050919050565b600082825260208201905092915050565b6000819050602082019050919050565b61132581610da8565b82525050565b61133481611213565b82525050565b606082016000820151611350600085018261131c565b506020820151611363602085018261132b565b5060408201516113766040850182610eb6565b50505050565b6000611388838361133a565b60608301905092915050565b6000602082019050919050565b60006113ac826112f0565b6113b681856112fb565b93506113c18361130c565b8060005b838110156113f25781516113d9888261137c565b97506113e483611394565b9250506001810190506113c5565b5085935050505092915050565b6000608083016000830151848203600086015261141c8282610e73565b915050602083015184820360208601526114368282610e73565b915050604083015161144b6040860182610eb6565b506060830151848203606086015261146382826113a1565b9150508091505092915050565b6000602082019050818103600083015261148a81846113ff565b905092915050565b6000606082840312156114a8576114a7611193565b5b81905092915050565b600080604083850312156114c8576114c7610d7e565b5b60006114d685828601610dd1565b925050602083013567ffffffffffffffff8111156114f7576114f6610d83565b5b61150385828601611492565b9150509250929050565b7f4e487b7100000000000000000000000000000000000000000000000000000000600052602260045260246000fd5b6000600282049050600182168061155457607f821691505b602082108114156115685761156761150d565b5b50919050565b600081905092915050565b600061158482610e13565b61158e818561156e565b935061159e818560208601610e2f565b80840191505092915050565b60006115b68284611579565b915081905092915050565b600082825260208201905092915050565b7f41646d696e206f6e6c7900000000000000000000000000000000000000000000600082015250565b6000611608600a836115c1565b9150611613826115d2565b602082019050919050565b60006020820190508181036000830152611637816115fb565b9050919050565b600080fd5b600080fd5b600080fd5b6000808335600160200384360303811261166a5761166961163e565b5b80840192508235915067ffffffffffffffff82111561168c5761168b611643565b5b6020830192506001820236038313156116a8576116a7611648565b5b509250929050565b600082905092915050565b60008190508160005260206000209050919050565b60006020601f8301049050919050565b600082821b905092915050565b60006008830261171d7fffffffffffffffffffffffffffffffffffffffffffffffffffffffffffffffff826116e0565b61172786836116e0565b95508019841693508086168417925050509392505050565b6000819050919050565b600061176461175f61175a84610eac565b61173f565b610eac565b9050919050565b6000819050919050565b61177e83611749565b61179261178a8261176b565b8484546116ed565b825550505050565b600090565b6117a761179a565b6117b2818484611775565b505050565b5b818110156117d6576117cb60008261179f565b6001810190506117b8565b5050565b601f82111561181b576117ec816116bb565b6117f5846116d0565b81016020851015611804578190505b611818611810856116d0565b8301826117b7565b50505b505050565b600082821c905092915050565b600061183e60001984600802611820565b1980831691505092915050565b6000611857838361182d565b9150826002028217905092915050565b61187183836116b0565b67ffffffffffffffff81111561188a57611889610f48565b5b611894825461153c565b61189f8282856117da565b6000601f8311600181146118ce57600084156118bc578287013590505b6118c6858261184b565b86555061192e565b601f1984166118dc866116bb565b60005b82811015611904578489013582556001820191506020850194506020810190506118df565b86831015611921578489013561191d601f89168261182d565b8355505b6001600288020188555050505b50505050505050565b611942838383611867565b505050565b61195081610eac565b811461195b57600080fd5b50565b6000813561196b81611947565b80915050919050565b60008160001b9050919050565b60007fffffffffffffffffffffffffffffffffffffffffffffffffffffffffffffffff6119ad84611974565b9350801983169250808416831791505092915050565b6119cc82611749565b6119df6119d88261176b565b8354611981565b8255505050565b60008101600083016119f8818561164d565b611a03818386611937565b505050506001810160208301611a19818561164d565b611a24818386611937565b50505050600281016040830180611a3a8161195e565b9050611a4681846119c3565b5050505050565b611a5782826119e6565b5050565b6000810160008301611a6d818561164d565b611a78818386611937565b505050506001810160208301611a8e818561164d565b611a99818386611937565b50505050600281016040830180611aaf8161195e565b9050611abb81846119c3565b5050505050565b611acc8282611a5b565b5050565b7f4d616e756661637475726572206f6e6c79000000000000000000000000000000600082015250565b6000611b066011836115c1565b9150611b1182611ad0565b602082019050919050565b60006020820190508181036000830152611b3581611af9565b905091905056fea2646970667358221220a9369220ada891d5c93c74edd058337e70866c25ca2be80962cf3d3e1e7c535664736f6c634300080b0033",
  "immutableReferences": {
    "797": [
      {
        "length": 32,
        "start": 1542
      },
      {
        "length": 32,
        "start": 2586
      }
    ]
  },
  "source": "// SPDX-License-Identifier: GPL-3.0\npragma solidity >=0.7.0 <0.9.0;\n\n\ncontract TrackerContract {\n    address private immutable ADMIN;\n\n    // add modifiers auth only client only manufacturer only\n    modifier onlyAdmin(){\n        require(ADMIN == msg.sender, \"Admin only\");\n        _;\n    }\n    modifier onlyManufacturer(){\n        require( bytes(manufacturers[msg.sender].name).length != 0  , \"Manufacturer only\");\n        _;\n    }\n\n    struct Manufacturer{\n        string name;\n        string description; \n        uint256 createdAt;\n    }\n    struct Transitioner{\n        string name; // FDA\n        string description;   // fda dyal dwa\n        uint256 createdAt;\n    }\n    struct Transition{\n        address transitionerAddr;\n        bool decision;\n        uint256 createdAt;\n    }\n    // dwa, dwa description, [{}, {addressFDA -> Trqnsitioner, true}]\n    struct Item{\n        string name;\n        string description;\n        uint256 createdAt;\n        Transition[] transitions;\n    }\n    mapping(address => Manufacturer) private manufacturers;\n    mapping(address => Transitioner) private transitioners;\n    mapping(string => Item) private items;\n    constructor(){\n        ADMIN = msg.sender;\n        transitioners[msg.sender] = Transitioner(\"Tname\", \"Tdesc\", block.timestamp);\n        manufacturers[msg.sender] = Manufacturer(\"Mname\", \"Mdesc\", block.timestamp);\n        Item storage it = items[\"product00\"];\n        it.name = \"product name\";\n        it.description = \"product description\";\n        it.createdAt = block.timestamp;\n        it.transitions.push(Transition(msg.sender, true, block.timestamp));\n\n    }\n    //calldata is constant\n\n    function getManufacturer(address id) external view returns(Manufacturer memory){\n        return manufacturers[id];\n    }\n    function getTransitioner(address id) external view returns(Transitioner memory){\n        return transitioners[id];\n    }\n    function getItem(string memory id) external view returns(Item memory){\n        return items[id];\n    }\n    function addManufacturer(address id, Manufacturer calldata manufacturer)external onlyAdmin{\n        manufacturers[id] = manufacturer;\n    }\n    function addTransitioner(address id, Transitioner calldata transitioner)external onlyAdmin{\n        transitioners[id] = transitioner;\n    }\n    function addItem(string memory id, string memory name,string memory description)external {\n        Item storage it = items[id];\n        it.name = name;\n        it.description = description;\n        it.createdAt = block.timestamp;\n        it.transitions.push(Transition(msg.sender, true, block.timestamp));\n    }\n    function addTransition(string memory id, bool decision)external{\n        items[id].transitions.push(Transition(msg.sender, decision, block.timestamp));\n    }\n    //flag product\n    function flagProduct(string memory id) onlyManufacturer external{\n        items[id].transitions.push(Transition(msg.sender, false, block.timestamp));\n    }\n}",
  "sourcePath": "C:\\Users\\DELL\\Desktop\\federator\\code\\contracts\\TrackerContract.sol",
  "compiler": {
    "name": "solc",
    "version": "0.8.11+commit.d7f03943.Emscripten.clang"
  },
  "schemaVersion": "3.4.4",
  "updatedAt": "2022-02-09T13:01:48.728Z",
  "networkType": "ethereum",
  "devdoc": {
    "kind": "dev",
    "methods": {},
    "version": 1
  },
  "userdoc": {
    "kind": "user",
    "methods": {},
    "version": 1
  }
}